{
  "contractName": "Pool",
  "abi": [
    {
      "anonymous": false,
      "inputs": [
        {
          "indexed": true,
          "internalType": "address",
          "name": "owner",
          "type": "address"
        },
        {
          "indexed": true,
          "internalType": "address",
          "name": "spender",
          "type": "address"
        },
        {
          "indexed": false,
          "internalType": "uint256",
          "name": "value",
          "type": "uint256"
        }
      ],
      "name": "Approval",
      "type": "event"
    },
    {
      "anonymous": false,
      "inputs": [
        {
          "indexed": true,
          "internalType": "address",
          "name": "beneficiary",
          "type": "address"
        },
        {
          "indexed": false,
          "internalType": "uint256",
          "name": "amount",
          "type": "uint256"
        }
      ],
      "name": "Deposited",
      "type": "event"
    },
    {
      "anonymous": false,
      "inputs": [
        {
          "indexed": true,
          "internalType": "address",
          "name": "previousOwner",
          "type": "address"
        },
        {
          "indexed": true,
          "internalType": "address",
          "name": "newOwner",
          "type": "address"
        }
      ],
      "name": "OwnershipTransferred",
      "type": "event"
    },
    {
      "anonymous": false,
      "inputs": [
        {
          "indexed": true,
          "internalType": "address",
          "name": "beneficiary",
          "type": "address"
        },
        {
          "indexed": false,
          "internalType": "uint256",
          "name": "amount",
          "type": "uint256"
        }
      ],
      "name": "Redeemed",
      "type": "event"
    },
    {
      "anonymous": false,
      "inputs": [
        {
          "indexed": true,
          "internalType": "address",
          "name": "from",
          "type": "address"
        },
        {
          "indexed": true,
          "internalType": "address",
          "name": "to",
          "type": "address"
        },
        {
          "indexed": false,
          "internalType": "uint256",
          "name": "value",
          "type": "uint256"
        }
      ],
      "name": "Transfer",
      "type": "event"
    },
    {
      "inputs": [],
      "name": "DEFAULT_LPT_RATE",
      "outputs": [
        {
          "internalType": "uint256",
          "name": "",
          "type": "uint256"
        }
      ],
      "stateMutability": "view",
      "type": "function",
      "constant": true
    },
    {
      "inputs": [
        {
          "internalType": "address",
          "name": "owner",
          "type": "address"
        },
        {
          "internalType": "address",
          "name": "spender",
          "type": "address"
        }
      ],
      "name": "allowance",
      "outputs": [
        {
          "internalType": "uint256",
          "name": "",
          "type": "uint256"
        }
      ],
      "stateMutability": "view",
      "type": "function",
      "constant": true
    },
    {
      "inputs": [
        {
          "internalType": "address",
          "name": "spender",
          "type": "address"
        },
        {
          "internalType": "uint256",
          "name": "amount",
          "type": "uint256"
        }
      ],
      "name": "approve",
      "outputs": [
        {
          "internalType": "bool",
          "name": "",
          "type": "bool"
        }
      ],
      "stateMutability": "nonpayable",
      "type": "function"
    },
    {
      "inputs": [
        {
          "internalType": "address",
          "name": "account",
          "type": "address"
        }
      ],
      "name": "balanceOf",
      "outputs": [
        {
          "internalType": "uint256",
          "name": "",
          "type": "uint256"
        }
      ],
      "stateMutability": "view",
      "type": "function",
      "constant": true
    },
    {
      "inputs": [
        {
          "internalType": "address",
          "name": "spender",
          "type": "address"
        },
        {
          "internalType": "uint256",
          "name": "subtractedValue",
          "type": "uint256"
        }
      ],
      "name": "decreaseAllowance",
      "outputs": [
        {
          "internalType": "bool",
          "name": "",
          "type": "bool"
        }
      ],
      "stateMutability": "nonpayable",
      "type": "function"
    },
    {
      "inputs": [],
      "name": "fee",
      "outputs": [
        {
          "internalType": "uint256",
          "name": "",
          "type": "uint256"
        }
      ],
      "stateMutability": "view",
      "type": "function",
      "constant": true
    },
    {
      "inputs": [
        {
          "internalType": "address",
          "name": "spender",
          "type": "address"
        },
        {
          "internalType": "uint256",
          "name": "addedValue",
          "type": "uint256"
        }
      ],
      "name": "increaseAllowance",
      "outputs": [
        {
          "internalType": "bool",
          "name": "",
          "type": "bool"
        }
      ],
      "stateMutability": "nonpayable",
      "type": "function"
    },
    {
      "inputs": [],
      "name": "maxInvestmentPerc",
      "outputs": [
        {
          "internalType": "uint256",
          "name": "",
          "type": "uint256"
        }
      ],
      "stateMutability": "view",
      "type": "function",
      "constant": true
    },
    {
      "inputs": [],
      "name": "name",
      "outputs": [
        {
          "internalType": "string",
          "name": "",
          "type": "string"
        }
      ],
      "stateMutability": "view",
      "type": "function",
      "constant": true
    },
    {
      "inputs": [],
      "name": "owner",
      "outputs": [
        {
          "internalType": "address",
          "name": "",
          "type": "address"
        }
      ],
      "stateMutability": "view",
      "type": "function",
      "constant": true
    },
    {
      "inputs": [],
      "name": "renounceOwnership",
      "outputs": [],
      "stateMutability": "nonpayable",
      "type": "function"
    },
    {
      "inputs": [],
      "name": "symbol",
      "outputs": [
        {
          "internalType": "string",
          "name": "",
          "type": "string"
        }
      ],
      "stateMutability": "view",
      "type": "function",
      "constant": true
    },
    {
      "inputs": [],
      "name": "totalSupply",
      "outputs": [
        {
          "internalType": "uint256",
          "name": "",
          "type": "uint256"
        }
      ],
      "stateMutability": "view",
      "type": "function",
      "constant": true
    },
    {
      "inputs": [
        {
          "internalType": "address",
          "name": "newOwner",
          "type": "address"
        }
      ],
      "name": "transferOwnership",
      "outputs": [],
      "stateMutability": "nonpayable",
      "type": "function"
    },
    {
      "inputs": [],
      "name": "underlying",
      "outputs": [
        {
          "internalType": "contract ERC20",
          "name": "",
          "type": "address"
        }
      ],
      "stateMutability": "view",
      "type": "function",
      "constant": true
    },
    {
      "inputs": [],
      "name": "underlyingStrategy",
      "outputs": [
        {
          "internalType": "address",
          "name": "",
          "type": "address"
        }
      ],
      "stateMutability": "view",
      "type": "function",
      "constant": true
    },
    {
      "inputs": [],
      "name": "underlyingUnit",
      "outputs": [
        {
          "internalType": "uint256",
          "name": "",
          "type": "uint256"
        }
      ],
      "stateMutability": "view",
      "type": "function",
      "constant": true
    },
    {
      "inputs": [
        {
          "internalType": "address",
          "name": "",
          "type": "address"
        }
      ],
      "name": "userAvgPrices",
      "outputs": [
        {
          "internalType": "uint256",
          "name": "",
          "type": "uint256"
        }
      ],
      "stateMutability": "view",
      "type": "function",
      "constant": true
    },
    {
      "inputs": [
        {
          "internalType": "string",
          "name": "_name",
          "type": "string"
        },
        {
          "internalType": "string",
          "name": "_symbol",
          "type": "string"
        },
        {
          "internalType": "address",
          "name": "_token",
          "type": "address"
        },
        {
          "internalType": "address",
          "name": "_strategy",
          "type": "address"
        },
        {
          "internalType": "uint256",
          "name": "_maxInvestmentPerc",
          "type": "uint256"
        },
        {
          "internalType": "address",
          "name": "_owner",
          "type": "address"
        }
      ],
      "name": "initialize",
      "outputs": [],
      "stateMutability": "nonpayable",
      "type": "function"
    },
    {
      "inputs": [
        {
          "internalType": "address",
          "name": "sender",
          "type": "address"
        },
        {
          "internalType": "address",
          "name": "recipient",
          "type": "address"
        },
        {
          "internalType": "uint256",
          "name": "amount",
          "type": "uint256"
        }
      ],
      "name": "transferFrom",
      "outputs": [
        {
          "internalType": "bool",
          "name": "",
          "type": "bool"
        }
      ],
      "stateMutability": "nonpayable",
      "type": "function"
    },
    {
      "inputs": [
        {
          "internalType": "address",
          "name": "recipient",
          "type": "address"
        },
        {
          "internalType": "uint256",
          "name": "amount",
          "type": "uint256"
        }
      ],
      "name": "transfer",
      "outputs": [
        {
          "internalType": "bool",
          "name": "",
          "type": "bool"
        }
      ],
      "stateMutability": "nonpayable",
      "type": "function"
    },
    {
      "inputs": [
        {
          "internalType": "uint256",
          "name": "depositAmount",
          "type": "uint256"
        }
      ],
      "name": "deposit",
      "outputs": [],
      "stateMutability": "nonpayable",
      "type": "function"
    },
    {
      "inputs": [
        {
          "internalType": "uint256",
          "name": "_redeemAmount",
          "type": "uint256"
        }
      ],
      "name": "redeem",
      "outputs": [
        {
          "internalType": "uint256",
          "name": "redeemedTokens",
          "type": "uint256"
        }
      ],
      "stateMutability": "nonpayable",
      "type": "function"
    },
    {
      "inputs": [],
      "name": "rebalance",
      "outputs": [],
      "stateMutability": "nonpayable",
      "type": "function"
    },
    {
      "inputs": [
        {
          "internalType": "uint256",
          "name": "_maxInvestmentPerc",
          "type": "uint256"
        }
      ],
      "name": "setMaxInvestmentPerc",
      "outputs": [],
      "stateMutability": "nonpayable",
      "type": "function"
    },
    {
      "inputs": [],
      "name": "getAPR",
      "outputs": [
        {
          "internalType": "uint256",
          "name": "apr",
          "type": "uint256"
        }
      ],
      "stateMutability": "view",
      "type": "function",
      "constant": true
    },
    {
      "inputs": [],
      "name": "decimals",
      "outputs": [
        {
          "internalType": "uint8",
          "name": "",
          "type": "uint8"
        }
      ],
      "stateMutability": "view",
      "type": "function",
      "constant": true
    },
    {
      "inputs": [],
      "name": "underlyingBalanceInPool",
      "outputs": [
        {
          "internalType": "uint256",
          "name": "",
          "type": "uint256"
        }
      ],
      "stateMutability": "view",
      "type": "function",
      "constant": true
    },
    {
      "inputs": [],
      "name": "underlyingBalanceInclStrategy",
      "outputs": [
        {
          "internalType": "uint256",
          "name": "",
          "type": "uint256"
        }
      ],
      "stateMutability": "view",
      "type": "function",
      "constant": true
    },
    {
      "inputs": [],
      "name": "getPricePerFullShare",
      "outputs": [
        {
          "internalType": "uint256",
          "name": "",
          "type": "uint256"
        }
      ],
      "stateMutability": "view",
      "type": "function",
      "constant": true
    },
    {
      "inputs": [],
      "name": "availableToInvestOut",
      "outputs": [
        {
          "internalType": "uint256",
          "name": "",
          "type": "uint256"
        }
      ],
      "stateMutability": "view",
      "type": "function",
      "constant": true
    }
  ],
  "bytecode": "0x608060405234801561001057600080fd5b5061248a806100206000396000f3fe608060405234801561001057600080fd5b50600436106101e55760003560e01c806395d89b411161010f578063c89d5b8b116100a2578063db0e454411610071578063db0e4544146103bf578063dd62ed3e146103d2578063ddca3f431461040b578063f2fde38b14610414576101e5565b8063c89d5b8b1461037e578063d6324e6014610386578063d6361a7514610399578063db006a75146103ac576101e5565b8063b592c390116100de578063b592c39014610352578063b6b55f251461035a578063bf07363a1461036d578063c1d40dbb14610376576101e5565b806395d89b411461031c5780639c3a8f8014610324578063a457c2d71461032c578063a9059cbb1461033f576101e5565b80634873773a11610187578063715018a611610156578063715018a6146102f157806377c7b8fc146102fb5780637d7c2a1c146103035780638da5cb5b1461030b576101e5565b80634873773a146102a157806353ceb01c146102aa5780636f307dc3146102b357806370a08231146102de576101e5565b806318160ddd116101c357806318160ddd1461025957806323b872dd14610261578063313ce56714610274578063395093511461028e576101e5565b806306fdde03146101ea578063095ea7b3146102085780630df94ef21461022b575b600080fd5b6101f2610427565b6040516101ff9190612161565b60405180910390f35b61021b610216366004612010565b6104ba565b60405190151581526020016101ff565b61024b610239366004611f89565b609c6020526000908152604090205481565b6040519081526020016101ff565b60355461024b565b61021b61026f366004611fd5565b6104d0565b61027c610560565b60405160ff90911681526020016101ff565b61021b61029c366004612010565b6105e2565b61024b609a5481565b61024b60985481565b6097546102c6906001600160a01b031681565b6040516001600160a01b0390911681526020016101ff565b61024b6102ec366004611f89565b610619565b6102f9610638565b005b61024b610677565b6102f96106b9565b6065546001600160a01b03166102c6565b6101f2610844565b61024b610853565b61021b61033a366004612010565b610901565b61021b61034d366004612010565b610990565b61024b6109ba565b6102f96103683660046120f4565b610aad565b61024b6103e881565b61024b610c33565b61024b610caf565b6099546102c6906001600160a01b031681565b6102f96103a73660046120f4565b610cf4565b61024b6103ba3660046120f4565b610d23565b6102f96103cd366004612059565b610f89565b61024b6103e0366004611fa3565b6001600160a01b03918216600090815260346020908152604080832093909416825291909152205490565b61024b609b5481565b6102f9610422366004611f89565b611126565b606060368054610436906123c5565b80601f0160208091040260200160405190810160405280929190818152602001828054610462906123c5565b80156104af5780601f10610484576101008083540402835291602001916104af565b820191906000526020600020905b81548152906001019060200180831161049257829003601f168201915b505050505090505b90565b60006104c73384846111c1565b50600192915050565b60006104dd8484846112e5565b61052f843361052a8560405180606001604052806028815260200161242d602891396001600160a01b038a16600090815260346020908152604080832033845290915290205491906114b5565b6111c1565b6001600160a01b0384166000908152609c602052604090205461055590849084906114e1565b5060015b9392505050565b6097546040805163313ce56760e01b815290516000926001600160a01b03169163313ce567916004808301926020929190829003018186803b1580156105a557600080fd5b505afa1580156105b9573d6000803e3d6000fd5b505050506040513d601f19601f820116820180604052508101906105dd9190612124565b905090565b3360008181526034602090815260408083206001600160a01b038716845290915281205490916104c791859061052a908690612217565b6001600160a01b0381166000908152603360205260409020545b919050565b6065546001600160a01b0316331461066b5760405162461bcd60e51b8152600401610662906121e2565b60405180910390fd5b610675600061154d565b565b600061068260355490565b156106b2576106ad61069360355490565b6106a761069e610853565b6098549061159f565b906115ab565b6105dd565b5060985490565b6065546001600160a01b031633146106e35760405162461bcd60e51b8152600401610662906121e2565b60006106ed610caf565b905060006106fa60355490565b60995460405163049104e560e01b815260048101839052602481018390523060448201529192506001600160a01b03169063049104e590606401602060405180830381600087803b15801561074e57600080fd5b505af1158015610762573d6000803e3d6000fd5b505050506040513d601f19601f82011682018060405250810190610786919061210c565b5061078f6115b7565b609960009054906101000a90046001600160a01b03166001600160a01b0316637d7c2a1c6040518163ffffffff1660e01b8152600401600060405180830381600087803b1580156107df57600080fd5b505af11580156107f3573d6000803e3d6000fd5b505050506000610801610caf565b90508083111561083f5760405162461bcd60e51b81526020600482015260096024820152682627aba2a92fa0a82960b91b6044820152606401610662565b505050565b606060378054610436906123c5565b6099546000906001600160a01b03166108755761086e610c33565b90506104b7565b609954604080516322e80f2560e11b815290516105dd926001600160a01b0316916345d01e4a916004808301926020929190829003018186803b1580156108bb57600080fd5b505afa1580156108cf573d6000803e3d6000fd5b505050506040513d601f19601f820116820180604052508101906108f3919061210c565b6108fb610c33565b906115e6565b3360009081526034602090815260408083206001600160a01b0386168452909152812054828110156109835760405162461bcd60e51b815260206004820152602560248201527f45524332303a2064656372656173656420616c6c6f77616e63652062656c6f77604482015264207a65726f60d81b6064820152608401610662565b61055533858584036111c1565b600061099d3384846112e5565b336000908152609c60205260409020546104c790849084906114e1565b6000806109d96305f5e1006106a7609a546109d3610853565b9061159f565b90506000609960009054906101000a90046001600160a01b03166001600160a01b03166345d01e4a6040518163ffffffff1660e01b815260040160206040518083038186803b158015610a2b57600080fd5b505afa158015610a3f573d6000803e3d6000fd5b505050506040513d601f19601f82011682018060405250810190610a63919061210c565b9050818110610a77576000925050506104b7565b6000610a8383836115f2565b9050610a8d610c33565b811115610aa157610a9c610c33565b610aa3565b805b93505050506104b7565b60008111610aeb5760405162461bcd60e51b815260206004820152600b60248201526a16915493d7d05353d5539560aa1b6044820152606401610662565b609754604051636eb1769f60e11b815233600482015230602482015282916001600160a01b03169063dd62ed3e9060440160206040518083038186803b158015610b3457600080fd5b505afa158015610b48573d6000803e3d6000fd5b505050506040513d601f19601f82011682018060405250810190610b6c919061210c565b1015610bb35760405162461bcd60e51b8152602060048201526016602482015275494e53554646494349454e545f414c4c4f57414e434560501b6044820152606401610662565b6000610bbe826115fe565b90506000610bca610677565b9050610bd6338361163a565b610be13383836114e1565b609754610bf9906001600160a01b0316333086611719565b60405183815233907f2da466a7b24304f47e87fa2e1e5a81b9831ce54fec19055ce277ca2f39ba42c49060200160405180910390a2505050565b6097546040516370a0823160e01b81523060048201526000916001600160a01b0316906370a082319060240160206040518083038186803b158015610c7757600080fd5b505afa158015610c8b573d6000803e3d6000fd5b505050506040513d601f19601f820116820180604052508101906105dd919061210c565b6099546040805163c89d5b8b60e01b815290516000926001600160a01b03169163c89d5b8b916004808301926020929190829003018186803b158015610c7757600080fd5b6065546001600160a01b03163314610d1e5760405162461bcd60e51b8152600401610662906121e2565b609a55565b600080610d2f60355490565b905060008111610d6f5760405162461bcd60e51b815260206004820152600b60248201526a5a45524f5f535550504c5960a81b6044820152606401610662565b60008311610dad5760405162461bcd60e51b815260206004820152600b60248201526a16915493d7d05353d5539560aa1b6044820152606401610662565b610db633610619565b831115610dfc5760405162461bcd60e51b8152602060048201526014602482015273494e53554646494349454e545f42414c414e434560601b6044820152606401610662565b6000610e06610853565b90506000610e12610c33565b90506000610e24846106a7858961159f565b90506000610e30610677565b905082821115610f18576000610e4683856115f2565b90506000610e61610e5787876115f2565b6106a7848a61159f565b60995460405163049104e560e01b815260048101839052602481018a90523060448201529192506001600160a01b03169063049104e590606401602060405180830381600087803b158015610eb557600080fd5b505af1158015610ec9573d6000803e3d6000fd5b505050506040513d601f19601f82011682018060405250810190610eed919061210c565b9750610f0f610f02886106a78c6109d3610853565b610f0a610c33565b611784565b97505050610f1c565b8195505b610f2787878361179a565b9550610f333388611804565b609754610f4a906001600160a01b03163388611952565b60405186815233907f4896181ff8f4543cc00db9fe9b6fb7e6f032b7eb772c72ab1ec1b4d2e03b93699060200160405180910390a25050505050919050565b600054610100900460ff1680610fa2575060005460ff16155b610fbe5760405162461bcd60e51b815260040161066290612194565b600054610100900460ff16158015610fe9576000805460ff1961ff0019909116610100171660011790555b610ff38787611982565b610ffb611a0a565b609780546001600160a01b0319166001600160a01b0387811691909117918290556040805163313ce56760e01b81529051929091169163313ce56791600480820192602092909190829003018186803b15801561105757600080fd5b505afa15801561106b573d6000803e3d6000fd5b505050506040513d601f19601f8201168201806040525081019061108f9190612124565b61109d9060ff16600a612295565b609855609980546001600160a01b0319166001600160a01b0386161790556110c482611126565b6305f5e1008311156111065760405162461bcd60e51b815260206004820152600b60248201526a2822a921afa424a3a422a960a91b6044820152606401610662565b609a839055801561111d576000805461ff00191690555b50505050505050565b6065546001600160a01b031633146111505760405162461bcd60e51b8152600401610662906121e2565b6001600160a01b0381166111b55760405162461bcd60e51b815260206004820152602660248201527f4f776e61626c653a206e6577206f776e657220697320746865207a65726f206160448201526564647265737360d01b6064820152608401610662565b6111be8161154d565b50565b6001600160a01b0383166112235760405162461bcd60e51b8152602060048201526024808201527f45524332303a20617070726f76652066726f6d20746865207a65726f206164646044820152637265737360e01b6064820152608401610662565b6001600160a01b0382166112845760405162461bcd60e51b815260206004820152602260248201527f45524332303a20617070726f766520746f20746865207a65726f206164647265604482015261737360f01b6064820152608401610662565b6001600160a01b0383811660008181526034602090815260408083209487168084529482529182902085905590518481527f8c5be1e5ebec7d5bd14f71427d1e84f3dd0314c0f7b2291e5b200ac8c7c3b925910160405180910390a3505050565b6001600160a01b0383166113495760405162461bcd60e51b815260206004820152602560248201527f45524332303a207472616e736665722066726f6d20746865207a65726f206164604482015264647265737360d81b6064820152608401610662565b6001600160a01b0382166113ab5760405162461bcd60e51b815260206004820152602360248201527f45524332303a207472616e7366657220746f20746865207a65726f206164647260448201526265737360e81b6064820152608401610662565b6001600160a01b038316600090815260336020526040902054818110156114235760405162461bcd60e51b815260206004820152602660248201527f45524332303a207472616e7366657220616d6f756e7420657863656564732062604482015265616c616e636560d01b6064820152608401610662565b6001600160a01b0380851660009081526033602052604080822085850390559185168152908120805484929061145a908490612217565b92505081905550826001600160a01b0316846001600160a01b03167fddf252ad1be2c89b69c2b068fc378daa952ba7f163c4a11628f55a4df523b3ef846040516114a691815260200190565b60405180910390a35b50505050565b600081848411156114d95760405162461bcd60e51b81526004016106629190612161565b505050900390565b60006114ec84610619565b905061152b816106a76114ff858761159f565b6108fb61150c86896115f2565b6001600160a01b038a166000908152609c60205260409020549061159f565b6001600160a01b039094166000908152609c6020526040902093909355505050565b606580546001600160a01b038381166001600160a01b0319831681179093556040519116919082907f8be0079c531659141344cd1fd0a4f28419497f9722a3daafe3b4186f6b6457e090600090a35050565b60006105598284612363565b6000610559828461222f565b60006115c16109ba565b905080156111be576099546097546111be916001600160a01b03918216911683611952565b60006105598284612217565b60006105598284612382565b60008061160a60355490565b9050806116255761161d836103e861159f565b915050610633565b610559611630610853565b6106a7858461159f565b6001600160a01b0382166116905760405162461bcd60e51b815260206004820152601f60248201527f45524332303a206d696e7420746f20746865207a65726f2061646472657373006044820152606401610662565b80603560008282546116a29190612217565b90915550506001600160a01b038216600090815260336020526040812080548392906116cf908490612217565b90915550506040518181526001600160a01b038316906000907fddf252ad1be2c89b69c2b068fc378daa952ba7f163c4a11628f55a4df523b3ef9060200160405180910390a35050565b6040516001600160a01b03808516602483015283166044820152606481018290526114af9085906323b872dd60e01b906084015b60408051601f198184030181529190526020810180516001600160e01b03166001600160e01b031990931692909217909152611a8e565b60008183106117935781610559565b5090919050565b336000908152609c6020526040812054808310156117bb5783915050610559565b60006117ee69152d02c7e14af68000006106a7609b546109d36117e7878a6115f290919063ffffffff16565b8b9061159f565b90506117fa85826115f2565b9695505050505050565b6001600160a01b0382166118645760405162461bcd60e51b815260206004820152602160248201527f45524332303a206275726e2066726f6d20746865207a65726f206164647265736044820152607360f81b6064820152608401610662565b6001600160a01b038216600090815260336020526040902054818110156118d85760405162461bcd60e51b815260206004820152602260248201527f45524332303a206275726e20616d6f756e7420657863656564732062616c616e604482015261636560f01b6064820152608401610662565b6001600160a01b0383166000908152603360205260408120838303905560358054849290611907908490612382565b90915550506040518281526000906001600160a01b038516907fddf252ad1be2c89b69c2b068fc378daa952ba7f163c4a11628f55a4df523b3ef9060200160405180910390a361083f565b6040516001600160a01b03831660248201526044810182905261083f90849063a9059cbb60e01b9060640161174d565b600054610100900460ff168061199b575060005460ff16155b6119b75760405162461bcd60e51b815260040161066290612194565b600054610100900460ff161580156119e2576000805460ff1961ff0019909116610100171660011790555b6119ea611b60565b6119f48383611bd3565b801561083f576000805461ff0019169055505050565b600054610100900460ff1680611a23575060005460ff16155b611a3f5760405162461bcd60e51b815260040161066290612194565b600054610100900460ff16158015611a6a576000805460ff1961ff0019909116610100171660011790555b611a72611b60565b611a7a611c71565b80156111be576000805461ff001916905550565b6000611ae3826040518060400160405280602081526020017f5361666545524332303a206c6f772d6c6576656c2063616c6c206661696c6564815250856001600160a01b0316611cda9092919063ffffffff16565b80519091501561083f5780806020019051810190611b019190612039565b61083f5760405162461bcd60e51b815260206004820152602a60248201527f5361666545524332303a204552433230206f7065726174696f6e20646964206e6044820152691bdd081cdd58d8d9595960b21b6064820152608401610662565b600054610100900460ff1680611b79575060005460ff16155b611b955760405162461bcd60e51b815260040161066290612194565b600054610100900460ff16158015611a7a576000805460ff1961ff00199091166101001716600117905580156111be576000805461ff001916905550565b600054610100900460ff1680611bec575060005460ff16155b611c085760405162461bcd60e51b815260040161066290612194565b600054610100900460ff16158015611c33576000805460ff1961ff0019909116610100171660011790555b8251611c46906036906020860190611e52565b508151611c5a906037906020850190611e52565b50801561083f576000805461ff0019169055505050565b600054610100900460ff1680611c8a575060005460ff16155b611ca65760405162461bcd60e51b815260040161066290612194565b600054610100900460ff16158015611cd1576000805460ff1961ff0019909116610100171660011790555b611a7a3361154d565b6060611ce98484600085611cf1565b949350505050565b606082471015611d525760405162461bcd60e51b815260206004820152602660248201527f416464726573733a20696e73756666696369656e742062616c616e636520666f6044820152651c8818d85b1b60d21b6064820152608401610662565b843b611da05760405162461bcd60e51b815260206004820152601d60248201527f416464726573733a2063616c6c20746f206e6f6e2d636f6e74726163740000006044820152606401610662565b600080866001600160a01b03168587604051611dbc9190612145565b60006040518083038185875af1925050503d8060008114611df9576040519150601f19603f3d011682016040523d82523d6000602084013e611dfe565b606091505b5091509150611e0e828286611e19565b979650505050505050565b60608315611e28575081610559565b825115611e385782518084602001fd5b8160405162461bcd60e51b81526004016106629190612161565b828054611e5e906123c5565b90600052602060002090601f016020900481019282611e805760008555611ec6565b82601f10611e9957805160ff1916838001178555611ec6565b82800160010185558215611ec6579182015b82811115611ec6578251825591602001919060010190611eab565b50611ed2929150611ed6565b5090565b5b80821115611ed25760008155600101611ed7565b80356001600160a01b038116811461063357600080fd5b600082601f830112611f12578081fd5b813567ffffffffffffffff80821115611f2d57611f2d612416565b604051601f8301601f19908116603f01168101908282118183101715611f5557611f55612416565b81604052838152866020858801011115611f6d578485fd5b8360208701602083013792830160200193909352509392505050565b600060208284031215611f9a578081fd5b61055982611eeb565b60008060408385031215611fb5578081fd5b611fbe83611eeb565b9150611fcc60208401611eeb565b90509250929050565b600080600060608486031215611fe9578081fd5b611ff284611eeb565b925061200060208501611eeb565b9150604084013590509250925092565b60008060408385031215612022578182fd5b61202b83611eeb565b946020939093013593505050565b60006020828403121561204a578081fd5b81518015158114610559578182fd5b60008060008060008060c08789031215612071578182fd5b863567ffffffffffffffff80821115612088578384fd5b6120948a838b01611f02565b975060208901359150808211156120a9578384fd5b506120b689828a01611f02565b9550506120c560408801611eeb565b93506120d360608801611eeb565b9250608087013591506120e860a08801611eeb565b90509295509295509295565b600060208284031215612105578081fd5b5035919050565b60006020828403121561211d578081fd5b5051919050565b600060208284031215612135578081fd5b815160ff81168114610559578182fd5b60008251612157818460208701612399565b9190910192915050565b6000602082528251806020840152612180816040850160208701612399565b601f01601f19169190910160400192915050565b6020808252602e908201527f496e697469616c697a61626c653a20636f6e747261637420697320616c72656160408201526d191e481a5b9a5d1a585b1a5e995960921b606082015260800190565b6020808252818101527f4f776e61626c653a2063616c6c6572206973206e6f7420746865206f776e6572604082015260600190565b6000821982111561222a5761222a612400565b500190565b60008261224a57634e487b7160e01b81526012600452602481fd5b500490565b80825b6001808611612261575061228c565b81870482111561227357612273612400565b8086161561228057918102915b9490941c938002612252565b94509492505050565b600061055960001984846000826122ae57506001610559565b816122bb57506000610559565b81600181146122d157600281146122db57612308565b6001915050610559565b60ff8411156122ec576122ec612400565b6001841b91508482111561230257612302612400565b50610559565b5060208310610133831016604e8410600b841016171561233b575081810a8381111561233657612336612400565b610559565b612348848484600161224f565b80860482111561235a5761235a612400565b02949350505050565b600081600019048311821515161561237d5761237d612400565b500290565b60008282101561239457612394612400565b500390565b60005b838110156123b457818101518382015260200161239c565b838111156114af5750506000910152565b6002810460018216806123d957607f821691505b602082108114156123fa57634e487b7160e01b600052602260045260246000fd5b50919050565b634e487b7160e01b600052601160045260246000fd5b634e487b7160e01b600052604160045260246000fdfe45524332303a207472616e7366657220616d6f756e74206578636565647320616c6c6f77616e6365a2646970667358221220eba3b76fae7478d949076a84b572b2731c8f411a9d425c970d54e9596bee02fa64736f6c63430008020033",
  "immutableReferences": {},
  "source": "// SPDX-License-Identifier: MIT\n\npragma solidity ^0.8.2;\n\nimport \"@openzeppelin/contracts/utils/math/Math.sol\";\nimport \"@openzeppelin/contracts/utils/math/SafeMath.sol\";\nimport \"@openzeppelin/contracts/token/ERC20/ERC20.sol\";\nimport \"@openzeppelin/contracts/token/ERC20/IERC20.sol\";\nimport \"@openzeppelin/contracts/token/ERC20/utils/SafeERC20.sol\";\nimport \"@openzeppelin/contracts-upgradeable/token/ERC20/ERC20Upgradeable.sol\";\nimport \"@openzeppelin/contracts-upgradeable/token/ERC20/IERC20Upgradeable.sol\";\nimport \"@openzeppelin/contracts-upgradeable/token/ERC20/utils/SafeERC20Upgradeable.sol\";\nimport \"@openzeppelin/contracts-upgradeable/access/OwnableUpgradeable.sol\";\n\nimport \"./interfaces/IPool.sol\";\nimport \"./interfaces/IStrategy.sol\";\n\n/// @title  Pool\n/// @notice Liquidity pool for for depositing tokens. For every token deposited\n///         into the pool, a LP token token is minted, representing a share of the pool.\n///         LP tokens can be redeemed for the underlying tokens.\n/// @dev    needs to be upgradeable, so that it complies with the beacon proxy pattern.\ncontract Pool is ERC20Upgradeable, IPool, OwnableUpgradeable {\n\n    using SafeMath for uint256;\n    using SafeERC20 for ERC20;\n    uint256 public constant DEFAULT_LPT_RATE = 1000;\n    uint256 private constant FULL_ALLOC = 100000000;\n\n    /// @notice when LP amount was redeemed\n    event Redeemed(address indexed beneficiary, uint256 amount);\n\n    /// @notice when LP amount was minted as a result of a deposit\n    event Deposited(address indexed beneficiary, uint256 amount);\n\n    /// @notice underlying token of the pool\n    ERC20 public underlying;\n\n    /// @notice underlying token decimal\n    uint256 public underlyingUnit;\n\n    //  @notice Strategy address\n    address public override underlyingStrategy;\n\n    // Max assets percentage to be invested. The rest is kept in the pool as reserve\n    uint256 public maxInvestmentPerc; // 100000 == 100% -> 1000\n\n    // Current fee on interest gained\n    uint256 public fee;\n\n    // Map that saves avg price paid for each user, used to calculate earnings\n    mapping(address => uint256) public userAvgPrices;\n\n    /// @notice Initialize the contract instead of a constructor during deployment.\n    /// @param  _name name of the LP token\n    /// @param  _symbol symbol of the LP token\n    /// @param  _token underlying token address\n    /// @param  _strategy address of the strategy\n    /// @param  _owner contract owner\n    function initialize(\n        string memory _name, string memory _symbol, address _token,\n        address _strategy, uint256 _maxInvestmentPerc, address _owner\n    ) external override initializer {\n        ERC20Upgradeable.__ERC20_init(_name, _symbol);\n        OwnableUpgradeable.__Ownable_init();\n\n        underlying = ERC20(_token);\n        underlyingUnit = 10 ** uint256(underlying.decimals());\n\n        underlyingStrategy = _strategy;\n        transferOwnership(_owner);\n\n        require(_maxInvestmentPerc <= FULL_ALLOC, \"PERC_HIGHER\");\n        maxInvestmentPerc = _maxInvestmentPerc;\n    }\n\n    function transferFrom(address sender, address recipient, uint256 amount) public override returns (bool) {\n        _transfer(sender, recipient, amount);\n        _approve(sender, msg.sender, allowance(sender, msg.sender).sub(amount, \"ERC20: transfer amount exceeds allowance\"));\n        _updateUserFeeInfo(recipient, amount, userAvgPrices[sender]);\n        return true;\n    }\n\n\n    function transfer(address recipient, uint256 amount) public override returns (bool) {\n        _transfer(msg.sender, recipient, amount);\n        _updateUserFeeInfo(recipient, amount, userAvgPrices[msg.sender]);\n        return true;\n    }\n\n    /// @notice Deposits the underlying token into the liquidity pool.\n    /// @param  depositAmount underlying token amount to deposit\n    function deposit(uint256 depositAmount) public {\n\n        require(depositAmount > 0, \"ZERO_AMOUNT\");\n        require(underlying.allowance(msg.sender, address(this)) >= depositAmount, \"INSUFFICIENT_ALLOWANCE\");\n\n        uint256 toMint = _calculateMintAmount(depositAmount);\n        uint256 lpPrice = getPricePerFullShare();\n\n        // Mint LP to sender.\n        _mint(msg.sender, toMint);\n\n        _updateUserFeeInfo(msg.sender, toMint, lpPrice);\n\n        // Transfer the tokens from the sender to this contract.\n        underlying.safeTransferFrom(msg.sender, address(this), depositAmount);\n\n        emit Deposited(msg.sender, depositAmount);\n    }\n\n    /// @notice Redeems LP tokens by burning them and getting back underlying token.\n    /// @param  _redeemAmount LP token amount to redeem.\n    /// @return redeemedTokens underlying tokens redeemed\n    function redeem(uint256 _redeemAmount) public returns (uint256 redeemedTokens) {\n\n        uint256 totalSupply = totalSupply();\n        require(totalSupply > 0, \"ZERO_SUPPLY\");\n        require(_redeemAmount > 0, \"ZERO_AMOUNT\");\n        require(_redeemAmount <= balanceOf(msg.sender), \"INSUFFICIENT_BALANCE\");\n\n        uint256 totalBalance = underlyingBalanceInclStrategy();\n        uint256 underlyingBalance = underlyingBalanceInPool();\n        uint256 underlyingAmountToWithdraw = totalBalance.mul(_redeemAmount).div(totalSupply);\n        uint256 lpPrice = getPricePerFullShare();\n\n\n        if (underlyingAmountToWithdraw > underlyingBalance) {\n            uint256 missingUnderlying = underlyingAmountToWithdraw.sub(underlyingBalance);\n            uint256 missingRedeemed = missingUnderlying.mul(totalSupply).div(totalBalance.sub(underlyingBalance));\n\n            redeemedTokens = IStrategy(underlyingStrategy).redeem(\n                missingRedeemed, totalSupply, address(this)\n            );\n\n            redeemedTokens = Math.min(\n                underlyingBalanceInclStrategy()\n                .mul(_redeemAmount)\n                .div(totalSupply),\n                underlyingBalanceInPool()\n            );\n        } else {\n            redeemedTokens = underlyingAmountToWithdraw;\n        }\n\n        redeemedTokens = _chargeFee(_redeemAmount, redeemedTokens, lpPrice);\n        // Burn LP from sender\n        _burn(msg.sender, _redeemAmount);\n        // send underlying to sender\n        underlying.safeTransfer(msg.sender, redeemedTokens);\n\n        emit Redeemed(msg.sender, redeemedTokens);\n    }\n\n    /// @notice Execute a rebalance. Only owner.\n    ///         Fails if the rebalance would result into lower APR.\n    function rebalance() external onlyOwner {\n\n        uint256 aprBefore = getAPR();\n        uint256 totalSupply = totalSupply();\n        // redeem the full supply\n        IStrategy(underlyingStrategy).redeem(totalSupply, totalSupply, address(this));\n        // re-invest\n        _invest();\n        // rebalance the supplied investment\n        IStrategy(underlyingStrategy).rebalance();\n        uint256 aprAfter = getAPR();\n\n        require(aprBefore <= aprAfter, \"LOWER_APR\");\n    }\n\n    function setMaxInvestmentPerc(uint256 _maxInvestmentPerc) external onlyOwner {\n        maxInvestmentPerc = _maxInvestmentPerc;\n    }\n\n    /// @notice APR for the investment\n    function getAPR() public view returns (uint256 apr) {\n        return IStrategy(underlyingStrategy).getAPR();\n    }\n\n    function decimals() public view virtual override returns (uint8) {\n        return uint8(underlying.decimals());\n    }\n\n    /// @notice Get the balance of the underlying token owned by the pool itself.\n    /// @return uint256 underlying balance.\n    function underlyingBalanceInPool() public view returns (uint256) {\n        return underlying.balanceOf(address(this));\n    }\n\n    /// @notice Get the total balance of the underlying token owned by the pool and its strategies.\n    /// @return total underlying balance.\n    function underlyingBalanceInclStrategy() public view returns (uint256) {\n        if (underlyingStrategy == address(0)) {\n            return underlyingBalanceInPool();\n        }\n\n        return underlyingBalanceInPool().add(IStrategy(underlyingStrategy).investedUnderlyingBalance());\n    }\n\n    function getPricePerFullShare() public view returns (uint256) {\n        return totalSupply() == 0\n            ? underlyingUnit\n            : underlyingUnit.mul(underlyingBalanceInclStrategy()).div(totalSupply());\n    }\n\n    /// @notice Calculate the LP token amount that correspondents to the underlying token amount.\n    /// @param  depositAmount underlying token amount to deposit.\n    /// @return uint256 LP token amount to mint.\n    function _calculateMintAmount(uint256 depositAmount) internal view returns (uint256) {\n        uint256 totalSupply = totalSupply();\n\n        if (totalSupply == 0) {\n            return depositAmount.mul(DEFAULT_LPT_RATE);\n        }\n\n        return depositAmount.mul(totalSupply).div(underlyingBalanceInclStrategy());\n    }\n\n    function _updateUserFeeInfo(address usr, uint256 qty, uint256 price) private {\n        uint256 usrBal = balanceOf(usr);\n        userAvgPrices[usr] = userAvgPrices[usr].mul(usrBal.sub(qty)).add(price.mul(qty)).div(usrBal);\n    }\n\n\n    function _chargeFee(uint256 amount, uint256 redeemed, uint256 currPrice) internal returns (uint256) {\n        uint256 avgPrice = userAvgPrices[msg.sender];\n        if (currPrice < avgPrice) {\n            return redeemed;\n        }\n\n        uint256 feeDue = amount.mul(currPrice.sub(avgPrice)).mul(fee).div(10**23);\n        // TODO send feeDue somewhere\n        return redeemed.sub(feeDue);\n    }\n\n    function availableToInvestOut() public view returns (uint256) {\n        uint256 wantInvestInTotal = underlyingBalanceInclStrategy()\n        .mul(maxInvestmentPerc)\n        .div(FULL_ALLOC);\n        uint256 alreadyInvested = IStrategy(underlyingStrategy).investedUnderlyingBalance();\n        if (alreadyInvested >= wantInvestInTotal) {\n            return 0;\n        } else {\n            uint256 remainingToInvest = wantInvestInTotal.sub(alreadyInvested);\n            return remainingToInvest <= underlyingBalanceInPool()\n            ? remainingToInvest : underlyingBalanceInPool();\n        }\n    }\n\n    function _invest() internal {\n        uint256 availableAmount = availableToInvestOut();\n        if (availableAmount > 0) {\n            underlying.safeTransfer(underlyingStrategy, availableAmount);\n        }\n    }\n}\n",
  "sourcePath": "/home/osboxes/robo-advisor/contracts/Pool.sol",
  "compiler": {
    "name": "solc",
    "version": "0.8.2+commit.661d1103.Emscripten.clang"
  },
  "schemaVersion": "3.4.3",
  "updatedAt": "2021-09-28T08:19:54.030Z",
  "networkType": "ethereum",
  "devdoc": {
    "details": "needs to be upgradeable, so that it complies with the beacon proxy pattern.",
    "kind": "dev",
    "methods": {
      "allowance(address,address)": {
        "details": "See {IERC20-allowance}."
      },
      "approve(address,uint256)": {
        "details": "See {IERC20-approve}. Requirements: - `spender` cannot be the zero address."
      },
      "balanceOf(address)": {
        "details": "See {IERC20-balanceOf}."
      },
      "decimals()": {
        "details": "Returns the number of decimals used to get its user representation. For example, if `decimals` equals `2`, a balance of `505` tokens should be displayed to a user as `5.05` (`505 / 10 ** 2`). Tokens usually opt for a value of 18, imitating the relationship between Ether and Wei. This is the value {ERC20} uses, unless this function is overridden; NOTE: This information is only used for _display_ purposes: it in no way affects any of the arithmetic of the contract, including {IERC20-balanceOf} and {IERC20-transfer}."
      },
      "decreaseAllowance(address,uint256)": {
        "details": "Atomically decreases the allowance granted to `spender` by the caller. This is an alternative to {approve} that can be used as a mitigation for problems described in {IERC20-approve}. Emits an {Approval} event indicating the updated allowance. Requirements: - `spender` cannot be the zero address. - `spender` must have allowance for the caller of at least `subtractedValue`."
      },
      "deposit(uint256)": {
        "params": {
          "depositAmount": "underlying token amount to deposit"
        }
      },
      "increaseAllowance(address,uint256)": {
        "details": "Atomically increases the allowance granted to `spender` by the caller. This is an alternative to {approve} that can be used as a mitigation for problems described in {IERC20-approve}. Emits an {Approval} event indicating the updated allowance. Requirements: - `spender` cannot be the zero address."
      },
      "initialize(string,string,address,address,uint256,address)": {
        "params": {
          "_name": "name of the LP token",
          "_owner": "contract owner",
          "_strategy": "address of the strategy",
          "_symbol": "symbol of the LP token",
          "_token": "underlying token address"
        }
      },
      "name()": {
        "details": "Returns the name of the token."
      },
      "owner()": {
        "details": "Returns the address of the current owner."
      },
      "redeem(uint256)": {
        "params": {
          "_redeemAmount": "LP token amount to redeem."
        },
        "returns": {
          "redeemedTokens": "underlying tokens redeemed"
        }
      },
      "renounceOwnership()": {
        "details": "Leaves the contract without owner. It will not be possible to call `onlyOwner` functions anymore. Can only be called by the current owner. NOTE: Renouncing ownership will leave the contract without an owner, thereby removing any functionality that is only available to the owner."
      },
      "symbol()": {
        "details": "Returns the symbol of the token, usually a shorter version of the name."
      },
      "totalSupply()": {
        "details": "See {IERC20-totalSupply}."
      },
      "transfer(address,uint256)": {
        "details": "See {IERC20-transfer}. Requirements: - `recipient` cannot be the zero address. - the caller must have a balance of at least `amount`."
      },
      "transferFrom(address,address,uint256)": {
        "details": "See {IERC20-transferFrom}. Emits an {Approval} event indicating the updated allowance. This is not required by the EIP. See the note at the beginning of {ERC20}. Requirements: - `sender` and `recipient` cannot be the zero address. - `sender` must have a balance of at least `amount`. - the caller must have allowance for ``sender``'s tokens of at least `amount`."
      },
      "transferOwnership(address)": {
        "details": "Transfers ownership of the contract to a new account (`newOwner`). Can only be called by the current owner."
      },
      "underlyingBalanceInPool()": {
        "returns": {
          "_0": "uint256 underlying balance."
        }
      },
      "underlyingBalanceInclStrategy()": {
        "returns": {
          "_0": "total underlying balance."
        }
      }
    },
    "title": "Pool",
    "version": 1
  },
  "userdoc": {
    "events": {
      "Deposited(address,uint256)": {
        "notice": "when LP amount was minted as a result of a deposit"
      },
      "Redeemed(address,uint256)": {
        "notice": "when LP amount was redeemed"
      }
    },
    "kind": "user",
    "methods": {
      "deposit(uint256)": {
        "notice": "Deposits the underlying token into the liquidity pool."
      },
      "getAPR()": {
        "notice": "APR for the investment"
      },
      "initialize(string,string,address,address,uint256,address)": {
        "notice": "Initialize the contract instead of a constructor during deployment."
      },
      "rebalance()": {
        "notice": "Execute a rebalance. Only owner.         Fails if the rebalance would result into lower APR."
      },
      "redeem(uint256)": {
        "notice": "Redeems LP tokens by burning them and getting back underlying token."
      },
      "underlying()": {
        "notice": "underlying token of the pool"
      },
      "underlyingBalanceInPool()": {
        "notice": "Get the balance of the underlying token owned by the pool itself."
      },
      "underlyingBalanceInclStrategy()": {
        "notice": "Get the total balance of the underlying token owned by the pool and its strategies."
      },
      "underlyingUnit()": {
        "notice": "underlying token decimal"
      }
    },
    "notice": "Liquidity pool for for depositing tokens. For every token deposited         into the pool, a LP token token is minted, representing a share of the pool.         LP tokens can be redeemed for the underlying tokens.",
    "version": 1
  }
}