{
  "contractName": "PoolFactory",
  "abi": [
    {
      "inputs": [
        {
          "internalType": "address",
          "name": "implementation_",
          "type": "address"
        }
      ],
      "stateMutability": "nonpayable",
      "type": "constructor"
    },
    {
      "anonymous": false,
      "inputs": [
        {
          "indexed": true,
          "internalType": "address",
          "name": "previousOwner",
          "type": "address"
        },
        {
          "indexed": true,
          "internalType": "address",
          "name": "newOwner",
          "type": "address"
        }
      ],
      "name": "OwnershipTransferred",
      "type": "event"
    },
    {
      "anonymous": false,
      "inputs": [
        {
          "indexed": false,
          "internalType": "address",
          "name": "proxy",
          "type": "address"
        }
      ],
      "name": "PoolProxyDeployed",
      "type": "event"
    },
    {
      "anonymous": false,
      "inputs": [
        {
          "indexed": true,
          "internalType": "address",
          "name": "implementation",
          "type": "address"
        }
      ],
      "name": "Upgraded",
      "type": "event"
    },
    {
      "inputs": [],
      "name": "implementation",
      "outputs": [
        {
          "internalType": "address",
          "name": "",
          "type": "address"
        }
      ],
      "stateMutability": "view",
      "type": "function",
      "constant": true
    },
    {
      "inputs": [],
      "name": "owner",
      "outputs": [
        {
          "internalType": "address",
          "name": "",
          "type": "address"
        }
      ],
      "stateMutability": "view",
      "type": "function",
      "constant": true
    },
    {
      "inputs": [
        {
          "internalType": "address",
          "name": "",
          "type": "address"
        }
      ],
      "name": "poolAddresses",
      "outputs": [
        {
          "internalType": "address",
          "name": "",
          "type": "address"
        }
      ],
      "stateMutability": "view",
      "type": "function",
      "constant": true
    },
    {
      "inputs": [],
      "name": "renounceOwnership",
      "outputs": [],
      "stateMutability": "nonpayable",
      "type": "function"
    },
    {
      "inputs": [
        {
          "internalType": "uint256",
          "name": "",
          "type": "uint256"
        }
      ],
      "name": "tokenAddresses",
      "outputs": [
        {
          "internalType": "address",
          "name": "",
          "type": "address"
        }
      ],
      "stateMutability": "view",
      "type": "function",
      "constant": true
    },
    {
      "inputs": [
        {
          "internalType": "address",
          "name": "newOwner",
          "type": "address"
        }
      ],
      "name": "transferOwnership",
      "outputs": [],
      "stateMutability": "nonpayable",
      "type": "function"
    },
    {
      "inputs": [
        {
          "internalType": "address",
          "name": "newImplementation",
          "type": "address"
        }
      ],
      "name": "upgradeTo",
      "outputs": [],
      "stateMutability": "nonpayable",
      "type": "function"
    },
    {
      "stateMutability": "payable",
      "type": "receive",
      "payable": true
    },
    {
      "inputs": [
        {
          "internalType": "address",
          "name": "poolToken",
          "type": "address"
        },
        {
          "internalType": "address",
          "name": "_strategy",
          "type": "address"
        },
        {
          "internalType": "uint256",
          "name": "_maxInvestmentPerc",
          "type": "uint256"
        }
      ],
      "name": "createPool",
      "outputs": [
        {
          "internalType": "address",
          "name": "",
          "type": "address"
        }
      ],
      "stateMutability": "nonpayable",
      "type": "function"
    },
    {
      "inputs": [],
      "name": "getTokenAddresses",
      "outputs": [
        {
          "internalType": "uint256",
          "name": "",
          "type": "uint256"
        }
      ],
      "stateMutability": "view",
      "type": "function",
      "constant": true
    },
    {
      "inputs": [],
      "name": "getName",
      "outputs": [
        {
          "internalType": "bytes32",
          "name": "",
          "type": "bytes32"
        }
      ],
      "stateMutability": "view",
      "type": "function",
      "constant": true
    }
  ],
  "bytecode": "0x608060405234801561001057600080fd5b5060405161152438038061152483398101604081905261002f9161014a565b8061003933610049565b61004281610099565b5050610178565b600080546001600160a01b038381166001600160a01b0319831681178455604051919092169283917f8be0079c531659141344cd1fd0a4f28419497f9722a3daafe3b4186f6b6457e09190a35050565b6100ac8161014460201b61068d1760201c565b6101225760405162461bcd60e51b815260206004820152603360248201527f5570677261646561626c65426561636f6e3a20696d706c656d656e746174696f60448201527f6e206973206e6f74206120636f6e747261637400000000000000000000000000606482015260840160405180910390fd5b600180546001600160a01b0319166001600160a01b0392909216919091179055565b3b151590565b60006020828403121561015b578081fd5b81516001600160a01b0381168114610171578182fd5b9392505050565b61139d806101876000396000f3fe608060405260043610620000a35760003560e01c8063715018a61162000061578063715018a614620001a05780638da5cb5b14620001b8578063e5df8b8414620001d8578063ee8c24b814620001fd578063f2fde38b146200021457620000ab565b806317d7de7c14620000b05780633659cfe614620000e15780634bae478e146200010857806351810fb5146200015b5780635c60da1b146200018057620000ab565b36620000ab57005b600080fd5b348015620000bd57600080fd5b506a506f6f6c466163746f727960a81b5b6040519081526020015b60405180910390f35b348015620000ee57600080fd5b506200010662000100366004620007a4565b62000239565b005b3480156200011557600080fd5b506200014262000127366004620007a4565b6002602052600090815260409020546001600160a01b031681565b6040516001600160a01b039091168152602001620000d8565b3480156200016857600080fd5b50620001426200017a366004620007c8565b620002b1565b3480156200018d57600080fd5b506001546001600160a01b031662000142565b348015620001ad57600080fd5b506200010662000585565b348015620001c557600080fd5b506000546001600160a01b031662000142565b348015620001e557600080fd5b5062000142620001f7366004620008bd565b620005c0565b3480156200020a57600080fd5b50600354620000ce565b3480156200022157600080fd5b506200010662000233366004620007a4565b620005eb565b6000546001600160a01b031633146200026f5760405162461bcd60e51b8152600401620002669062000961565b60405180910390fd5b6200027a8162000697565b6040516001600160a01b038216907fbc7cd75a20ee27fd9adebab32041f755214dbc6bffa90cc0225b39da2e5c2d3b90600090a250565b600080546001600160a01b03163314620002df5760405162461bcd60e51b8152600401620002669062000961565b6001600160a01b0384811660009081526002602052604090205416156200033b5760405162461bcd60e51b815260206004820152600f60248201526e1053149150511657d0d49150551151608a1b604482015260640162000266565b6000306040516200034c906200077e565b6001600160a01b039091168152604060208201819052600090820152606001604051809103906000f08015801562000388573d6000803e3d6000fd5b506040516001600160a01b03821681529091507f53c9eaf267a021225e8a0d57f11645f88d414e11fb64d244763b725e85516a5d9060200160405180910390a16001600160a01b0381166200040e5760405162461bcd60e51b815260206004820152600b60248201526a1393d517d0d4915055115160aa1b604482015260640162000266565b6000856001600160a01b03166306fdde036040518163ffffffff1660e01b815260040160006040518083038186803b1580156200044a57600080fd5b505afa1580156200045f573d6000803e3d6000fd5b505050506040513d6000823e601f3d908101601f1916820160405262000489919081019062000808565b604080518082018252600381526213141560ea1b602082015290516336c3915160e21b8152919250906001600160a01b0384169063db0e454490620004dd90859085908c908c908c90339060040162000904565b600060405180830381600087803b158015620004f857600080fd5b505af11580156200050d573d6000803e3d6000fd5b505060038054600181019091557fc2575a0e9e593c00f959f8c92f12db2869c3395a3b0502d05e2516446f71f85b0180546001600160a01b03199081166001600160a01b039b8c1690811790925560009182526002602052604090912080549091169986169990991790985550919695505050505050565b6000546001600160a01b03163314620005b25760405162461bcd60e51b8152600401620002669062000961565b620005be60006200072e565b565b60038181548110620005d157600080fd5b6000918252602090912001546001600160a01b0316905081565b6000546001600160a01b03163314620006185760405162461bcd60e51b8152600401620002669062000961565b6001600160a01b0381166200067f5760405162461bcd60e51b815260206004820152602660248201527f4f776e61626c653a206e6577206f776e657220697320746865207a65726f206160448201526564647265737360d01b606482015260840162000266565b6200068a816200072e565b50565b803b15155b919050565b620006a2816200068d565b6200070c5760405162461bcd60e51b815260206004820152603360248201527f5570677261646561626c65426561636f6e3a20696d706c656d656e746174696f6044820152721b881a5cc81b9bdd08184818dbdb9d1c9858dd606a1b606482015260840162000266565b600180546001600160a01b0319166001600160a01b0392909216919091179055565b600080546001600160a01b038381166001600160a01b0319831681178455604051919092169283917f8be0079c531659141344cd1fd0a4f28419497f9722a3daafe3b4186f6b6457e09190a35050565b61098880620009e083390190565b80356001600160a01b03811681146200069257600080fd5b600060208284031215620007b6578081fd5b620007c1826200078c565b9392505050565b600080600060608486031215620007dd578182fd5b620007e8846200078c565b9250620007f8602085016200078c565b9150604084013590509250925092565b6000602082840312156200081a578081fd5b815167ffffffffffffffff8082111562000832578283fd5b818401915084601f83011262000846578283fd5b8151818111156200085b576200085b620009c9565b604051601f8201601f19908116603f01168101908382118183101715620008865762000886620009c9565b816040528281528760208487010111156200089f578586fd5b620008b283602083016020880162000996565b979650505050505050565b600060208284031215620008cf578081fd5b5035919050565b60008151808452620008f081602086016020860162000996565b601f01601f19169290920160200192915050565b600060c082526200091960c0830189620008d6565b82810360208401526200092d8189620008d6565b6001600160a01b03978816604085015295871660608401525050608081019290925290921660a09092019190915292915050565b6020808252818101527f4f776e61626c653a2063616c6c6572206973206e6f7420746865206f776e6572604082015260600190565b60005b83811015620009b357818101518382015260200162000999565b83811115620009c3576000848401525b50505050565b634e487b7160e01b600052604160045260246000fdfe608060405260405161098838038061098883398101604081905261002291610483565b61004d60017fa3f0ad74e5423aebfd80d3ef4346578335a9a72aeaee59ff6cb3582b35133d5161058e565b6000805160206109418339815191521461007757634e487b7160e01b600052600160045260246000fd5b6100838282600061008a565b50506105f3565b61009383610164565b6040516001600160a01b038416907f1cf3b03a6cf19fa2baba4df148e9dcabedea7f8a5c07840e207e5c089be95d3e90600090a26000825111806100d45750805b1561015f5761015d836001600160a01b0316635c60da1b6040518163ffffffff1660e01b815260040160206040518083038186803b15801561011557600080fd5b505afa158015610129573d6000803e3d6000fd5b505050506040513d601f19601f8201168201806040525081019061014d9190610469565b8361030460201b6100291760201c565b505b505050565b6101778161033060201b6100551760201c565b6101d65760405162461bcd60e51b815260206004820152602560248201527f455243313936373a206e657720626561636f6e206973206e6f74206120636f6e6044820152641d1c9858dd60da1b60648201526084015b60405180910390fd5b610259816001600160a01b0316635c60da1b6040518163ffffffff1660e01b815260040160206040518083038186803b15801561021257600080fd5b505afa158015610226573d6000803e3d6000fd5b505050506040513d601f19601f8201168201806040525081019061024a9190610469565b61033060201b6100551760201c565b6102be5760405162461bcd60e51b815260206004820152603060248201527f455243313936373a20626561636f6e20696d706c656d656e746174696f6e206960448201526f1cc81b9bdd08184818dbdb9d1c9858dd60821b60648201526084016101cd565b806102e360008051602061094183398151915260001b61033a60201b61005b1760201c565b80546001600160a01b0319166001600160a01b039290921691909117905550565b606061032983836040518060600160405280602781526020016109616027913961033d565b9392505050565b803b15155b919050565b90565b606061034884610330565b6103a35760405162461bcd60e51b815260206004820152602660248201527f416464726573733a2064656c65676174652063616c6c20746f206e6f6e2d636f6044820152651b9d1c9858dd60d21b60648201526084016101cd565b600080856001600160a01b0316856040516103be919061053f565b600060405180830381855af49150503d80600081146103f9576040519150601f19603f3d011682016040523d82523d6000602084013e6103fe565b606091505b50909250905061040f828286610419565b9695505050505050565b60608315610428575081610329565b8251156104385782518084602001fd5b8160405162461bcd60e51b81526004016101cd919061055b565b80516001600160a01b038116811461033557600080fd5b60006020828403121561047a578081fd5b61032982610452565b60008060408385031215610495578081fd5b61049e83610452565b60208401519092506001600160401b03808211156104ba578283fd5b818501915085601f8301126104cd578283fd5b8151818111156104df576104df6105dd565b604051601f8201601f19908116603f01168101908382118183101715610507576105076105dd565b8160405282815288602084870101111561051f578586fd5b6105308360208301602088016105b1565b80955050505050509250929050565b600082516105518184602087016105b1565b9190910192915050565b600060208252825180602084015261057a8160408501602087016105b1565b601f01601f19169190910160400192915050565b6000828210156105ac57634e487b7160e01b81526011600452602481fd5b500390565b60005b838110156105cc5781810151838201526020016105b4565b8381111561015d5750506000910152565b634e487b7160e01b600052604160045260246000fd5b61033f806106026000396000f3fe60806040523661001357610011610017565b005b6100115b61002761002261005e565b610106565b565b606061004e83836040518060600160405280602781526020016102e36027913961012a565b9392505050565b3b151590565b90565b60006100917fa3f0ad74e5423aebfd80d3ef4346578335a9a72aeaee59ff6cb3582b35133d50546001600160a01b031690565b6001600160a01b0316635c60da1b6040518163ffffffff1660e01b815260040160206040518083038186803b1580156100c957600080fd5b505afa1580156100dd573d6000803e3d6000fd5b505050506040513d601f19601f82011682018060405250810190610101919061023c565b905090565b3660008037600080366000845af43d6000803e808015610125573d6000f35b3d6000fd5b6060833b61018e5760405162461bcd60e51b815260206004820152602660248201527f416464726573733a2064656c65676174652063616c6c20746f206e6f6e2d636f6044820152651b9d1c9858dd60d21b60648201526084015b60405180910390fd5b600080856001600160a01b0316856040516101a99190610263565b600060405180830381855af49150503d80600081146101e4576040519150601f19603f3d011682016040523d82523d6000602084013e6101e9565b606091505b50915091506101f9828286610203565b9695505050505050565b6060831561021257508161004e565b8251156102225782518084602001fd5b8160405162461bcd60e51b8152600401610185919061027f565b60006020828403121561024d578081fd5b81516001600160a01b038116811461004e578182fd5b600082516102758184602087016102b2565b9190910192915050565b600060208252825180602084015261029e8160408501602087016102b2565b601f01601f19169190910160400192915050565b60005b838110156102cd5781810151838201526020016102b5565b838111156102dc576000848401525b5050505056fe416464726573733a206c6f772d6c6576656c2064656c65676174652063616c6c206661696c6564a2646970667358221220a182e77895072c5f82b8b9c3a6b5d562005243a8704b40f29497db571911907464736f6c63430008020033a3f0ad74e5423aebfd80d3ef4346578335a9a72aeaee59ff6cb3582b35133d50416464726573733a206c6f772d6c6576656c2064656c65676174652063616c6c206661696c6564a2646970667358221220365f2a214fd6ff13c00ddf659a004a0e203bc29b4246869dfa1c677ecfc6643664736f6c63430008020033",
  "immutableReferences": {},
  "source": "// SPDX-License-Identifier: MIT\n\npragma solidity ^0.8.2;\n\nimport \"@openzeppelin/contracts/token/ERC20/ERC20.sol\";\nimport \"@openzeppelin/contracts/proxy/beacon/BeaconProxy.sol\";\nimport \"@openzeppelin/contracts/proxy/beacon/UpgradeableBeacon.sol\";\n\nimport \"./interfaces/IPool.sol\";\nimport \"./interfaces/IPoolFactory.sol\";\nimport \"./interfaces/IBaseContract.sol\";\n\n/// @title  PoolFactory\n/// @notice Creates new pools for underlying tokens.\ncontract PoolFactory is UpgradeableBeacon, IPoolFactory, IBaseContract {\n\n    mapping(address => address) public override poolAddresses;\n    address[] public tokenAddresses;\n\n    event PoolProxyDeployed(address proxy);\n\n    // solhint-disable-next-line\n    /// @notice Construct an upgradable beacon.\n    /// @param  implementation_ address of the beacon proxy.\n    constructor(address implementation_) UpgradeableBeacon(implementation_) {}\n\n    /// @notice Creates new pools for underlying token. Only owner.\n    /// @param  poolToken  address of the underlying token to crete pool for.\n    /// @return address pool address\n    function createPool(address poolToken, address _strategy, uint256 _maxInvestmentPerc)\n    external onlyOwner returns (address) {\n\n        // Check if a pool was already created for the given token.\n        require(poolAddresses[poolToken] == address(0), \"ALREADY_CREATED\");\n\n        // Deploy a beacon proxy that gets the implementation address for each call from a UpgradeableBeacon.\n        address instance = address(new BeaconProxy(address(this), \"\"));\n        emit PoolProxyDeployed(instance);\n\n        // Check that the contract was created\n        require(instance != address(0), \"NOT_CREATED\");\n\n        // Set pool/token name and symbol\n        string memory _name = ERC20(poolToken).name();\n        string memory _symbol = \"LPT\";\n\n        // init the pool; add initial strategies\n        IPool(instance).initialize(_name, _symbol, poolToken, _strategy, _maxInvestmentPerc, msg.sender);\n\n        tokenAddresses.push(poolToken);\n\n        // Map created pool with proxy\n        poolAddresses[poolToken] = instance;\n        return instance;\n\n    }\n\n    /// @notice Pool count\n    /// @return uint256 count\n    function getTokenAddresses() public view returns (uint256) {\n        return tokenAddresses.length;\n    }\n\n    /// @notice Contract name\n    /// @return bytes32 name\n    function getName() override external view returns (bytes32) {\n        return \"PoolFactory\";\n    }\n\n    // solhint-disable-next-line\n    receive() external payable {}\n\n}\n",
  "sourcePath": "/home/osboxes/robo-advisor/contracts/PoolFactory.sol",
  "compiler": {
    "name": "solc",
    "version": "0.8.2+commit.661d1103.Emscripten.clang"
  },
  "schemaVersion": "3.4.3",
  "updatedAt": "2021-09-28T08:23:57.816Z",
  "networkType": "ethereum",
  "devdoc": {
    "kind": "dev",
    "methods": {
      "constructor": {
        "params": {
          "implementation_": "address of the beacon proxy."
        }
      },
      "createPool(address,address,uint256)": {
        "params": {
          "poolToken": "address of the underlying token to crete pool for."
        },
        "returns": {
          "_0": "address pool address"
        }
      },
      "getName()": {
        "returns": {
          "_0": "bytes32 name"
        }
      },
      "getTokenAddresses()": {
        "returns": {
          "_0": "uint256 count"
        }
      },
      "implementation()": {
        "details": "Returns the current implementation address."
      },
      "owner()": {
        "details": "Returns the address of the current owner."
      },
      "renounceOwnership()": {
        "details": "Leaves the contract without owner. It will not be possible to call `onlyOwner` functions anymore. Can only be called by the current owner. NOTE: Renouncing ownership will leave the contract without an owner, thereby removing any functionality that is only available to the owner."
      },
      "transferOwnership(address)": {
        "details": "Transfers ownership of the contract to a new account (`newOwner`). Can only be called by the current owner."
      },
      "upgradeTo(address)": {
        "details": "Upgrades the beacon to a new implementation. Emits an {Upgraded} event. Requirements: - msg.sender must be the owner of the contract. - `newImplementation` must be a contract."
      }
    },
    "title": "PoolFactory",
    "version": 1
  },
  "userdoc": {
    "kind": "user",
    "methods": {
      "constructor": {
        "notice": "Construct an upgradable beacon."
      },
      "createPool(address,address,uint256)": {
        "notice": "Creates new pools for underlying token. Only owner."
      },
      "getName()": {
        "notice": "Contract name"
      },
      "getTokenAddresses()": {
        "notice": "Pool count"
      }
    },
    "notice": "Creates new pools for underlying tokens.",
    "version": 1
  }
}