{
  "contractName": "Pool",
  "abi": [
    {
      "anonymous": false,
      "inputs": [
        {
          "indexed": true,
          "internalType": "address",
          "name": "owner",
          "type": "address"
        },
        {
          "indexed": true,
          "internalType": "address",
          "name": "spender",
          "type": "address"
        },
        {
          "indexed": false,
          "internalType": "uint256",
          "name": "value",
          "type": "uint256"
        }
      ],
      "name": "Approval",
      "type": "event"
    },
    {
      "anonymous": false,
      "inputs": [
        {
          "indexed": true,
          "internalType": "address",
          "name": "beneficiary",
          "type": "address"
        },
        {
          "indexed": false,
          "internalType": "uint256",
          "name": "amount",
          "type": "uint256"
        }
      ],
      "name": "Deposited",
      "type": "event"
    },
    {
      "anonymous": false,
      "inputs": [
        {
          "indexed": true,
          "internalType": "address",
          "name": "previousOwner",
          "type": "address"
        },
        {
          "indexed": true,
          "internalType": "address",
          "name": "newOwner",
          "type": "address"
        }
      ],
      "name": "OwnershipTransferred",
      "type": "event"
    },
    {
      "anonymous": false,
      "inputs": [
        {
          "indexed": true,
          "internalType": "address",
          "name": "beneficiary",
          "type": "address"
        },
        {
          "indexed": false,
          "internalType": "uint256",
          "name": "amount",
          "type": "uint256"
        }
      ],
      "name": "Redeemed",
      "type": "event"
    },
    {
      "anonymous": false,
      "inputs": [
        {
          "indexed": true,
          "internalType": "address",
          "name": "from",
          "type": "address"
        },
        {
          "indexed": true,
          "internalType": "address",
          "name": "to",
          "type": "address"
        },
        {
          "indexed": false,
          "internalType": "uint256",
          "name": "value",
          "type": "uint256"
        }
      ],
      "name": "Transfer",
      "type": "event"
    },
    {
      "inputs": [],
      "name": "DEFAULT_LPT_RATE",
      "outputs": [
        {
          "internalType": "uint256",
          "name": "",
          "type": "uint256"
        }
      ],
      "stateMutability": "view",
      "type": "function",
      "constant": true
    },
    {
      "inputs": [
        {
          "internalType": "address",
          "name": "owner",
          "type": "address"
        },
        {
          "internalType": "address",
          "name": "spender",
          "type": "address"
        }
      ],
      "name": "allowance",
      "outputs": [
        {
          "internalType": "uint256",
          "name": "",
          "type": "uint256"
        }
      ],
      "stateMutability": "view",
      "type": "function",
      "constant": true
    },
    {
      "inputs": [
        {
          "internalType": "address",
          "name": "spender",
          "type": "address"
        },
        {
          "internalType": "uint256",
          "name": "amount",
          "type": "uint256"
        }
      ],
      "name": "approve",
      "outputs": [
        {
          "internalType": "bool",
          "name": "",
          "type": "bool"
        }
      ],
      "stateMutability": "nonpayable",
      "type": "function"
    },
    {
      "inputs": [
        {
          "internalType": "address",
          "name": "account",
          "type": "address"
        }
      ],
      "name": "balanceOf",
      "outputs": [
        {
          "internalType": "uint256",
          "name": "",
          "type": "uint256"
        }
      ],
      "stateMutability": "view",
      "type": "function",
      "constant": true
    },
    {
      "inputs": [
        {
          "internalType": "address",
          "name": "spender",
          "type": "address"
        },
        {
          "internalType": "uint256",
          "name": "subtractedValue",
          "type": "uint256"
        }
      ],
      "name": "decreaseAllowance",
      "outputs": [
        {
          "internalType": "bool",
          "name": "",
          "type": "bool"
        }
      ],
      "stateMutability": "nonpayable",
      "type": "function"
    },
    {
      "inputs": [
        {
          "internalType": "address",
          "name": "spender",
          "type": "address"
        },
        {
          "internalType": "uint256",
          "name": "addedValue",
          "type": "uint256"
        }
      ],
      "name": "increaseAllowance",
      "outputs": [
        {
          "internalType": "bool",
          "name": "",
          "type": "bool"
        }
      ],
      "stateMutability": "nonpayable",
      "type": "function"
    },
    {
      "inputs": [],
      "name": "maxInvestmentPerc",
      "outputs": [
        {
          "internalType": "uint256",
          "name": "",
          "type": "uint256"
        }
      ],
      "stateMutability": "view",
      "type": "function",
      "constant": true
    },
    {
      "inputs": [],
      "name": "name",
      "outputs": [
        {
          "internalType": "string",
          "name": "",
          "type": "string"
        }
      ],
      "stateMutability": "view",
      "type": "function",
      "constant": true
    },
    {
      "inputs": [],
      "name": "owner",
      "outputs": [
        {
          "internalType": "address",
          "name": "",
          "type": "address"
        }
      ],
      "stateMutability": "view",
      "type": "function",
      "constant": true
    },
    {
      "inputs": [],
      "name": "renounceOwnership",
      "outputs": [],
      "stateMutability": "nonpayable",
      "type": "function"
    },
    {
      "inputs": [],
      "name": "symbol",
      "outputs": [
        {
          "internalType": "string",
          "name": "",
          "type": "string"
        }
      ],
      "stateMutability": "view",
      "type": "function",
      "constant": true
    },
    {
      "inputs": [],
      "name": "totalSupply",
      "outputs": [
        {
          "internalType": "uint256",
          "name": "",
          "type": "uint256"
        }
      ],
      "stateMutability": "view",
      "type": "function",
      "constant": true
    },
    {
      "inputs": [
        {
          "internalType": "address",
          "name": "recipient",
          "type": "address"
        },
        {
          "internalType": "uint256",
          "name": "amount",
          "type": "uint256"
        }
      ],
      "name": "transfer",
      "outputs": [
        {
          "internalType": "bool",
          "name": "",
          "type": "bool"
        }
      ],
      "stateMutability": "nonpayable",
      "type": "function"
    },
    {
      "inputs": [
        {
          "internalType": "address",
          "name": "sender",
          "type": "address"
        },
        {
          "internalType": "address",
          "name": "recipient",
          "type": "address"
        },
        {
          "internalType": "uint256",
          "name": "amount",
          "type": "uint256"
        }
      ],
      "name": "transferFrom",
      "outputs": [
        {
          "internalType": "bool",
          "name": "",
          "type": "bool"
        }
      ],
      "stateMutability": "nonpayable",
      "type": "function"
    },
    {
      "inputs": [
        {
          "internalType": "address",
          "name": "newOwner",
          "type": "address"
        }
      ],
      "name": "transferOwnership",
      "outputs": [],
      "stateMutability": "nonpayable",
      "type": "function"
    },
    {
      "inputs": [],
      "name": "underlying",
      "outputs": [
        {
          "internalType": "contract ERC20",
          "name": "",
          "type": "address"
        }
      ],
      "stateMutability": "view",
      "type": "function",
      "constant": true
    },
    {
      "inputs": [],
      "name": "underlyingStrategy",
      "outputs": [
        {
          "internalType": "address",
          "name": "",
          "type": "address"
        }
      ],
      "stateMutability": "view",
      "type": "function",
      "constant": true
    },
    {
      "inputs": [],
      "name": "underlyingUnit",
      "outputs": [
        {
          "internalType": "uint256",
          "name": "",
          "type": "uint256"
        }
      ],
      "stateMutability": "view",
      "type": "function",
      "constant": true
    },
    {
      "inputs": [
        {
          "internalType": "string",
          "name": "_name",
          "type": "string"
        },
        {
          "internalType": "string",
          "name": "_symbol",
          "type": "string"
        },
        {
          "internalType": "address",
          "name": "_token",
          "type": "address"
        },
        {
          "internalType": "address",
          "name": "_strategy",
          "type": "address"
        },
        {
          "internalType": "uint256",
          "name": "_maxInvestmentPerc",
          "type": "uint256"
        },
        {
          "internalType": "address",
          "name": "_owner",
          "type": "address"
        }
      ],
      "name": "initialize",
      "outputs": [],
      "stateMutability": "nonpayable",
      "type": "function"
    },
    {
      "inputs": [
        {
          "internalType": "uint256",
          "name": "depositAmount",
          "type": "uint256"
        }
      ],
      "name": "deposit",
      "outputs": [],
      "stateMutability": "nonpayable",
      "type": "function"
    },
    {
      "inputs": [
        {
          "internalType": "uint256",
          "name": "_redeemAmount",
          "type": "uint256"
        }
      ],
      "name": "redeem",
      "outputs": [
        {
          "internalType": "uint256",
          "name": "redeemedTokens",
          "type": "uint256"
        }
      ],
      "stateMutability": "nonpayable",
      "type": "function"
    },
    {
      "inputs": [],
      "name": "rebalance",
      "outputs": [],
      "stateMutability": "nonpayable",
      "type": "function"
    },
    {
      "inputs": [],
      "name": "getAPR",
      "outputs": [
        {
          "internalType": "uint256",
          "name": "apr",
          "type": "uint256"
        }
      ],
      "stateMutability": "view",
      "type": "function",
      "constant": true
    },
    {
      "inputs": [],
      "name": "decimals",
      "outputs": [
        {
          "internalType": "uint8",
          "name": "",
          "type": "uint8"
        }
      ],
      "stateMutability": "view",
      "type": "function",
      "constant": true
    },
    {
      "inputs": [],
      "name": "underlyingBalanceInPool",
      "outputs": [
        {
          "internalType": "uint256",
          "name": "",
          "type": "uint256"
        }
      ],
      "stateMutability": "view",
      "type": "function",
      "constant": true
    },
    {
      "inputs": [],
      "name": "underlyingBalanceInclStrategy",
      "outputs": [
        {
          "internalType": "uint256",
          "name": "",
          "type": "uint256"
        }
      ],
      "stateMutability": "view",
      "type": "function",
      "constant": true
    },
    {
      "inputs": [],
      "name": "getPricePerFullShare",
      "outputs": [
        {
          "internalType": "uint256",
          "name": "",
          "type": "uint256"
        }
      ],
      "stateMutability": "view",
      "type": "function",
      "constant": true
    },
    {
      "inputs": [],
      "name": "availableToInvestOut",
      "outputs": [
        {
          "internalType": "uint256",
          "name": "",
          "type": "uint256"
        }
      ],
      "stateMutability": "view",
      "type": "function",
      "constant": true
    }
  ],
  "bytecode": "0x608060405234801561001057600080fd5b5061229f806100206000396000f3fe608060405234801561001057600080fd5b50600436106101c45760003560e01c806395d89b41116100f9578063c1d40dbb11610097578063db006a7511610071578063db006a7514610354578063db0e454414610367578063dd62ed3e1461037a578063f2fde38b146103b3576101c4565b8063c1d40dbb14610331578063c89d5b8b14610339578063d6324e6014610341576101c4565b8063a9059cbb116100d3578063a9059cbb146102fa578063b592c3901461030d578063b6b55f2514610315578063bf07363a14610328576101c4565b806395d89b41146102d75780639c3a8f80146102df578063a457c2d7146102e7576101c4565b806353ceb01c11610166578063715018a611610140578063715018a6146102ac57806377c7b8fc146102b65780637d7c2a1c146102be5780638da5cb5b146102c6576101c4565b806353ceb01c146102655780636f307dc31461026e57806370a0823114610299576101c4565b806323b872dd116101a257806323b872dd1461021c578063313ce5671461022f57806339509351146102495780634873773a1461025c576101c4565b806306fdde03146101c9578063095ea7b3146101e757806318160ddd1461020a575b600080fd5b6101d16103c6565b6040516101de9190611f9e565b60405180910390f35b6101fa6101f5366004611e4d565b610459565b60405190151581526020016101de565b6035545b6040519081526020016101de565b6101fa61022a366004611e12565b61046f565b610237610520565b60405160ff90911681526020016101de565b6101fa610257366004611e4d565b6105a2565b61020e609a5481565b61020e60985481565b609754610281906001600160a01b031681565b6040516001600160a01b0390911681526020016101de565b61020e6102a7366004611dc6565b6105de565b6102b46105fd565b005b61020e610633565b6102b4610675565b6065546001600160a01b0316610281565b6101d1610800565b61020e61080f565b6101fa6102f5366004611e4d565b6108bd565b6101fa610308366004611e4d565b610956565b61020e610963565b6102b4610323366004611f31565b610a56565b61020e6103e881565b61020e610bc4565b61020e610c40565b609954610281906001600160a01b031681565b61020e610362366004611f31565b610c85565b6102b4610375366004611e96565b610ed1565b61020e610388366004611de0565b6001600160a01b03918216600090815260346020908152604080832093909416825291909152205490565b6102b46103c1366004611dc6565b611065565b6060603680546103d590612202565b80601f016020809104026020016040519081016040528092919081815260200182805461040190612202565b801561044e5780601f106104235761010080835404028352916020019161044e565b820191906000526020600020905b81548152906001019060200180831161043157829003601f168201915b505050505090505b90565b6000610466338484611100565b50600192915050565b600061047c848484611224565b6001600160a01b0384166000908152603460209081526040808320338452909152902054828110156105065760405162461bcd60e51b815260206004820152602860248201527f45524332303a207472616e7366657220616d6f756e74206578636565647320616044820152676c6c6f77616e636560c01b60648201526084015b60405180910390fd5b6105138533858403611100565b60019150505b9392505050565b6097546040805163313ce56760e01b815290516000926001600160a01b03169163313ce567916004808301926020929190829003018186803b15801561056557600080fd5b505afa158015610579573d6000803e3d6000fd5b505050506040513d601f19601f8201168201806040525081019061059d9190611f61565b905090565b3360008181526034602090815260408083206001600160a01b038716845290915281205490916104669185906105d9908690612054565b611100565b6001600160a01b0381166000908152603360205260409020545b919050565b6065546001600160a01b031633146106275760405162461bcd60e51b81526004016104fd9061201f565b61063160006113f4565b565b600061063e60355490565b1561066e5761066961064f60355490565b61066361065a61080f565b60985490611446565b90611452565b61059d565b5060985490565b6065546001600160a01b0316331461069f5760405162461bcd60e51b81526004016104fd9061201f565b60006106a9610c40565b905060006106b660355490565b60995460405163049104e560e01b815260048101839052602481018390523060448201529192506001600160a01b03169063049104e590606401602060405180830381600087803b15801561070a57600080fd5b505af115801561071e573d6000803e3d6000fd5b505050506040513d601f19601f820116820180604052508101906107429190611f49565b5061074b61145e565b609960009054906101000a90046001600160a01b03166001600160a01b0316637d7c2a1c6040518163ffffffff1660e01b8152600401600060405180830381600087803b15801561079b57600080fd5b505af11580156107af573d6000803e3d6000fd5b5050505060006107bd610c40565b9050808311156107fb5760405162461bcd60e51b81526020600482015260096024820152682627aba2a92fa0a82960b91b60448201526064016104fd565b505050565b6060603780546103d590612202565b6099546000906001600160a01b03166108315761082a610bc4565b9050610456565b609954604080516322e80f2560e11b8152905161059d926001600160a01b0316916345d01e4a916004808301926020929190829003018186803b15801561087757600080fd5b505afa15801561088b573d6000803e3d6000fd5b505050506040513d601f19601f820116820180604052508101906108af9190611f49565b6108b7610bc4565b9061148d565b3360009081526034602090815260408083206001600160a01b03861684529091528120548281101561093f5760405162461bcd60e51b815260206004820152602560248201527f45524332303a2064656372656173656420616c6c6f77616e63652062656c6f77604482015264207a65726f60d81b60648201526084016104fd565b61094c3385858403611100565b5060019392505050565b6000610466338484611224565b6000806109826305f5e100610663609a5461097c61080f565b90611446565b90506000609960009054906101000a90046001600160a01b03166001600160a01b03166345d01e4a6040518163ffffffff1660e01b815260040160206040518083038186803b1580156109d457600080fd5b505afa1580156109e8573d6000803e3d6000fd5b505050506040513d601f19601f82011682018060405250810190610a0c9190611f49565b9050818110610a2057600092505050610456565b6000610a2c8383611499565b9050610a36610bc4565b811115610a4a57610a45610bc4565b610a4c565b805b9350505050610456565b60008111610a945760405162461bcd60e51b815260206004820152600b60248201526a16915493d7d05353d5539560aa1b60448201526064016104fd565b609754604051636eb1769f60e11b815233600482015230602482015282916001600160a01b03169063dd62ed3e9060440160206040518083038186803b158015610add57600080fd5b505afa158015610af1573d6000803e3d6000fd5b505050506040513d601f19601f82011682018060405250810190610b159190611f49565b1015610b5c5760405162461bcd60e51b8152602060048201526016602482015275494e53554646494349454e545f414c4c4f57414e434560501b60448201526064016104fd565b6000610b67826114a5565b9050610b7333826114e1565b609754610b8b906001600160a01b03163330856115c0565b60405182815233907f2da466a7b24304f47e87fa2e1e5a81b9831ce54fec19055ce277ca2f39ba42c49060200160405180910390a25050565b6097546040516370a0823160e01b81523060048201526000916001600160a01b0316906370a082319060240160206040518083038186803b158015610c0857600080fd5b505afa158015610c1c573d6000803e3d6000fd5b505050506040513d601f19601f8201168201806040525081019061059d9190611f49565b6099546040805163c89d5b8b60e01b815290516000926001600160a01b03169163c89d5b8b916004808301926020929190829003018186803b158015610c0857600080fd5b600080610c9160355490565b905060008111610cd15760405162461bcd60e51b815260206004820152600b60248201526a5a45524f5f535550504c5960a81b60448201526064016104fd565b60008311610d0f5760405162461bcd60e51b815260206004820152600b60248201526a16915493d7d05353d5539560aa1b60448201526064016104fd565b610d18336105de565b831115610d5e5760405162461bcd60e51b8152602060048201526014602482015273494e53554646494349454e545f42414c414e434560601b60448201526064016104fd565b6000610d6861080f565b90506000610d74610bc4565b90506000610d86846106638589611446565b905081811115610e6e576000610d9c8284611499565b90506000610db7610dad8686611499565b6106638489611446565b60995460405163049104e560e01b815260048101839052602481018990523060448201529192506001600160a01b03169063049104e590606401602060405180830381600087803b158015610e0b57600080fd5b505af1158015610e1f573d6000803e3d6000fd5b505050506040513d601f19601f82011682018060405250810190610e439190611f49565b9650610e65610e58876106638b61097c61080f565b610e60610bc4565b61162b565b96505050610e72565b8094505b610e7c3387611641565b609754610e93906001600160a01b0316338761178f565b60405185815233907f4896181ff8f4543cc00db9fe9b6fb7e6f032b7eb772c72ab1ec1b4d2e03b93699060200160405180910390a250505050919050565b600054610100900460ff1680610eea575060005460ff16155b610f065760405162461bcd60e51b81526004016104fd90611fd1565b600054610100900460ff16158015610f31576000805460ff1961ff0019909116610100171660011790555b610f3b87876117bf565b610f43611847565b609780546001600160a01b0319166001600160a01b0387811691909117918290556040805163313ce56760e01b81529051929091169163313ce56791600480820192602092909190829003018186803b158015610f9f57600080fd5b505afa158015610fb3573d6000803e3d6000fd5b505050506040513d601f19601f82011682018060405250810190610fd79190611f61565b610fe59060ff16600a6120d2565b609855609980546001600160a01b0319166001600160a01b0386161790556305f5e1008311156110455760405162461bcd60e51b815260206004820152600b60248201526a2822a921afa424a3a422a960a91b60448201526064016104fd565b609a839055801561105c576000805461ff00191690555b50505050505050565b6065546001600160a01b0316331461108f5760405162461bcd60e51b81526004016104fd9061201f565b6001600160a01b0381166110f45760405162461bcd60e51b815260206004820152602660248201527f4f776e61626c653a206e6577206f776e657220697320746865207a65726f206160448201526564647265737360d01b60648201526084016104fd565b6110fd816113f4565b50565b6001600160a01b0383166111625760405162461bcd60e51b8152602060048201526024808201527f45524332303a20617070726f76652066726f6d20746865207a65726f206164646044820152637265737360e01b60648201526084016104fd565b6001600160a01b0382166111c35760405162461bcd60e51b815260206004820152602260248201527f45524332303a20617070726f766520746f20746865207a65726f206164647265604482015261737360f01b60648201526084016104fd565b6001600160a01b0383811660008181526034602090815260408083209487168084529482529182902085905590518481527f8c5be1e5ebec7d5bd14f71427d1e84f3dd0314c0f7b2291e5b200ac8c7c3b925910160405180910390a3505050565b6001600160a01b0383166112885760405162461bcd60e51b815260206004820152602560248201527f45524332303a207472616e736665722066726f6d20746865207a65726f206164604482015264647265737360d81b60648201526084016104fd565b6001600160a01b0382166112ea5760405162461bcd60e51b815260206004820152602360248201527f45524332303a207472616e7366657220746f20746865207a65726f206164647260448201526265737360e81b60648201526084016104fd565b6001600160a01b038316600090815260336020526040902054818110156113625760405162461bcd60e51b815260206004820152602660248201527f45524332303a207472616e7366657220616d6f756e7420657863656564732062604482015265616c616e636560d01b60648201526084016104fd565b6001600160a01b03808516600090815260336020526040808220858503905591851681529081208054849290611399908490612054565b92505081905550826001600160a01b0316846001600160a01b03167fddf252ad1be2c89b69c2b068fc378daa952ba7f163c4a11628f55a4df523b3ef846040516113e591815260200190565b60405180910390a35b50505050565b606580546001600160a01b038381166001600160a01b0319831681179093556040519116919082907f8be0079c531659141344cd1fd0a4f28419497f9722a3daafe3b4186f6b6457e090600090a35050565b600061051982846121a0565b6000610519828461206c565b6000611468610963565b905080156110fd576099546097546110fd916001600160a01b0391821691168361178f565b60006105198284612054565b600061051982846121bf565b6000806114b160355490565b9050806114cc576114c4836103e8611446565b9150506105f8565b6105196114d761080f565b6106638584611446565b6001600160a01b0382166115375760405162461bcd60e51b815260206004820152601f60248201527f45524332303a206d696e7420746f20746865207a65726f20616464726573730060448201526064016104fd565b80603560008282546115499190612054565b90915550506001600160a01b03821660009081526033602052604081208054839290611576908490612054565b90915550506040518181526001600160a01b038316906000907fddf252ad1be2c89b69c2b068fc378daa952ba7f163c4a11628f55a4df523b3ef9060200160405180910390a35050565b6040516001600160a01b03808516602483015283166044820152606481018290526113ee9085906323b872dd60e01b906084015b60408051601f198184030181529190526020810180516001600160e01b03166001600160e01b0319909316929092179091526118cb565b600081831061163a5781610519565b5090919050565b6001600160a01b0382166116a15760405162461bcd60e51b815260206004820152602160248201527f45524332303a206275726e2066726f6d20746865207a65726f206164647265736044820152607360f81b60648201526084016104fd565b6001600160a01b038216600090815260336020526040902054818110156117155760405162461bcd60e51b815260206004820152602260248201527f45524332303a206275726e20616d6f756e7420657863656564732062616c616e604482015261636560f01b60648201526084016104fd565b6001600160a01b03831660009081526033602052604081208383039055603580548492906117449084906121bf565b90915550506040518281526000906001600160a01b038516907fddf252ad1be2c89b69c2b068fc378daa952ba7f163c4a11628f55a4df523b3ef9060200160405180910390a36107fb565b6040516001600160a01b0383166024820152604481018290526107fb90849063a9059cbb60e01b906064016115f4565b600054610100900460ff16806117d8575060005460ff16155b6117f45760405162461bcd60e51b81526004016104fd90611fd1565b600054610100900460ff1615801561181f576000805460ff1961ff0019909116610100171660011790555b61182761199d565b6118318383611a10565b80156107fb576000805461ff0019169055505050565b600054610100900460ff1680611860575060005460ff16155b61187c5760405162461bcd60e51b81526004016104fd90611fd1565b600054610100900460ff161580156118a7576000805460ff1961ff0019909116610100171660011790555b6118af61199d565b6118b7611aae565b80156110fd576000805461ff001916905550565b6000611920826040518060400160405280602081526020017f5361666545524332303a206c6f772d6c6576656c2063616c6c206661696c6564815250856001600160a01b0316611b179092919063ffffffff16565b8051909150156107fb578080602001905181019061193e9190611e76565b6107fb5760405162461bcd60e51b815260206004820152602a60248201527f5361666545524332303a204552433230206f7065726174696f6e20646964206e6044820152691bdd081cdd58d8d9595960b21b60648201526084016104fd565b600054610100900460ff16806119b6575060005460ff16155b6119d25760405162461bcd60e51b81526004016104fd90611fd1565b600054610100900460ff161580156118b7576000805460ff1961ff00199091166101001716600117905580156110fd576000805461ff001916905550565b600054610100900460ff1680611a29575060005460ff16155b611a455760405162461bcd60e51b81526004016104fd90611fd1565b600054610100900460ff16158015611a70576000805460ff1961ff0019909116610100171660011790555b8251611a83906036906020860190611c8f565b508151611a97906037906020850190611c8f565b5080156107fb576000805461ff0019169055505050565b600054610100900460ff1680611ac7575060005460ff16155b611ae35760405162461bcd60e51b81526004016104fd90611fd1565b600054610100900460ff16158015611b0e576000805460ff1961ff0019909116610100171660011790555b6118b7336113f4565b6060611b268484600085611b2e565b949350505050565b606082471015611b8f5760405162461bcd60e51b815260206004820152602660248201527f416464726573733a20696e73756666696369656e742062616c616e636520666f6044820152651c8818d85b1b60d21b60648201526084016104fd565b843b611bdd5760405162461bcd60e51b815260206004820152601d60248201527f416464726573733a2063616c6c20746f206e6f6e2d636f6e747261637400000060448201526064016104fd565b600080866001600160a01b03168587604051611bf99190611f82565b60006040518083038185875af1925050503d8060008114611c36576040519150601f19603f3d011682016040523d82523d6000602084013e611c3b565b606091505b5091509150611c4b828286611c56565b979650505050505050565b60608315611c65575081610519565b825115611c755782518084602001fd5b8160405162461bcd60e51b81526004016104fd9190611f9e565b828054611c9b90612202565b90600052602060002090601f016020900481019282611cbd5760008555611d03565b82601f10611cd657805160ff1916838001178555611d03565b82800160010185558215611d03579182015b82811115611d03578251825591602001919060010190611ce8565b50611d0f929150611d13565b5090565b5b80821115611d0f5760008155600101611d14565b80356001600160a01b03811681146105f857600080fd5b600082601f830112611d4f578081fd5b813567ffffffffffffffff80821115611d6a57611d6a612253565b604051601f8301601f19908116603f01168101908282118183101715611d9257611d92612253565b81604052838152866020858801011115611daa578485fd5b8360208701602083013792830160200193909352509392505050565b600060208284031215611dd7578081fd5b61051982611d28565b60008060408385031215611df2578081fd5b611dfb83611d28565b9150611e0960208401611d28565b90509250929050565b600080600060608486031215611e26578081fd5b611e2f84611d28565b9250611e3d60208501611d28565b9150604084013590509250925092565b60008060408385031215611e5f578182fd5b611e6883611d28565b946020939093013593505050565b600060208284031215611e87578081fd5b81518015158114610519578182fd5b60008060008060008060c08789031215611eae578182fd5b863567ffffffffffffffff80821115611ec5578384fd5b611ed18a838b01611d3f565b97506020890135915080821115611ee6578384fd5b50611ef389828a01611d3f565b955050611f0260408801611d28565b9350611f1060608801611d28565b925060808701359150611f2560a08801611d28565b90509295509295509295565b600060208284031215611f42578081fd5b5035919050565b600060208284031215611f5a578081fd5b5051919050565b600060208284031215611f72578081fd5b815160ff81168114610519578182fd5b60008251611f948184602087016121d6565b9190910192915050565b6000602082528251806020840152611fbd8160408501602087016121d6565b601f01601f19169190910160400192915050565b6020808252602e908201527f496e697469616c697a61626c653a20636f6e747261637420697320616c72656160408201526d191e481a5b9a5d1a585b1a5e995960921b606082015260800190565b6020808252818101527f4f776e61626c653a2063616c6c6572206973206e6f7420746865206f776e6572604082015260600190565b600082198211156120675761206761223d565b500190565b60008261208757634e487b7160e01b81526012600452602481fd5b500490565b80825b600180861161209e57506120c9565b8187048211156120b0576120b061223d565b808616156120bd57918102915b9490941c93800261208f565b94509492505050565b600061051960001984846000826120eb57506001610519565b816120f857506000610519565b816001811461210e576002811461211857612145565b6001915050610519565b60ff8411156121295761212961223d565b6001841b91508482111561213f5761213f61223d565b50610519565b5060208310610133831016604e8410600b8410161715612178575081810a838111156121735761217361223d565b610519565b612185848484600161208c565b8086048211156121975761219761223d565b02949350505050565b60008160001904831182151516156121ba576121ba61223d565b500290565b6000828210156121d1576121d161223d565b500390565b60005b838110156121f15781810151838201526020016121d9565b838111156113ee5750506000910152565b60028104600182168061221657607f821691505b6020821081141561223757634e487b7160e01b600052602260045260246000fd5b50919050565b634e487b7160e01b600052601160045260246000fd5b634e487b7160e01b600052604160045260246000fdfea26469706673582212207c37e08a58a5e3525f806f746e4dd5339dab2c0c1ebe3b605276c05652b8720364736f6c63430008020033",
  "immutableReferences": {},
  "source": "// SPDX-License-Identifier: MIT\n\npragma solidity ^0.8.2;\n\nimport \"@openzeppelin/contracts/utils/math/Math.sol\";\nimport \"@openzeppelin/contracts/utils/math/SafeMath.sol\";\nimport \"@openzeppelin/contracts/token/ERC20/ERC20.sol\";\nimport \"@openzeppelin/contracts/token/ERC20/IERC20.sol\";\nimport \"@openzeppelin/contracts/token/ERC20/utils/SafeERC20.sol\";\nimport \"@openzeppelin/contracts-upgradeable/token/ERC20/ERC20Upgradeable.sol\";\nimport \"@openzeppelin/contracts-upgradeable/token/ERC20/IERC20Upgradeable.sol\";\nimport \"@openzeppelin/contracts-upgradeable/token/ERC20/utils/SafeERC20Upgradeable.sol\";\nimport \"@openzeppelin/contracts-upgradeable/access/OwnableUpgradeable.sol\";\n\nimport \"./interfaces/IPool.sol\";\nimport \"./interfaces/IStrategy.sol\";\n\n/// @title  Pool\n/// @notice Liquidity pool for for depositing tokens. For every token deposited\n///         into the pool, a LP token token is minted, representing a share of the pool.\n///         LP tokens can be redeemed for the underlying tokens.\n/// @dev    needs to be upgradeable, so that it complies with the beacon proxy pattern.\ncontract Pool is ERC20Upgradeable, IPool, OwnableUpgradeable {\n\n    using SafeMath for uint256;\n    using SafeERC20 for ERC20;\n    uint256 public constant DEFAULT_LPT_RATE = 1000;\n    uint256 private constant FULL_ALLOC = 100000000;\n\n    /// @notice when LP amount was redeemed\n    event Redeemed(address indexed beneficiary, uint256 amount);\n\n    /// @notice when LP amount was minted as a result of a deposit\n    event Deposited(address indexed beneficiary, uint256 amount);\n\n    /// @notice underlying token of the pool\n    ERC20 public underlying;\n\n    /// @notice underlying token decimal\n    uint256 public underlyingUnit;\n\n    //  @notice Strategy address\n    address public override underlyingStrategy;\n\n    // Max assets percentage to be invested. The rest is kept in the pool as reserve\n    uint256 public maxInvestmentPerc; // 100000 == 100% -> 1000\n\n    /// @notice Initialize the contract instead of a constructor during deployment.\n    /// @param  _name name of the LP token\n    /// @param  _symbol symbol of the LP token\n    /// @param  _token underlying token address\n    /// @param  _strategy address of the strategy\n    /// @param  _owner contract owner\n    function initialize(\n        string memory _name, string memory _symbol, address _token,\n        address _strategy, uint256 _maxInvestmentPerc, address _owner\n    ) external override initializer {\n        ERC20Upgradeable.__ERC20_init(_name, _symbol);\n        OwnableUpgradeable.__Ownable_init();\n\n        underlying = ERC20(_token);\n        underlyingUnit = 10 ** uint256(underlying.decimals());\n\n        underlyingStrategy = _strategy;\n\n        require(_maxInvestmentPerc <= FULL_ALLOC, \"PERC_HIGHER\");\n        maxInvestmentPerc = _maxInvestmentPerc;\n    }\n\n    /// @notice Deposits the underlying token into the liquidity pool.\n    /// @param  depositAmount underlying token amount to deposit\n    function deposit(uint256 depositAmount) public {\n\n        require(depositAmount > 0, \"ZERO_AMOUNT\");\n        require(underlying.allowance(msg.sender, address(this)) >= depositAmount, \"INSUFFICIENT_ALLOWANCE\");\n\n        uint256 toMint = _calculateMintAmount(depositAmount);\n\n        // Mint LP to sender.\n        _mint(msg.sender, toMint);\n\n        // Transfer the tokens from the sender to this contract.\n        underlying.safeTransferFrom(msg.sender, address(this), depositAmount);\n\n        emit Deposited(msg.sender, depositAmount);\n    }\n\n    /// @notice Redeems LP tokens by burning them and getting back underlying token.\n    /// @param  _redeemAmount LP token amount to redeem.\n    /// @return redeemedTokens underlying tokens redeemed\n    function redeem(uint256 _redeemAmount) public returns (uint256 redeemedTokens) {\n\n        uint256 totalSupply = totalSupply();\n        require(totalSupply > 0, \"ZERO_SUPPLY\");\n        require(_redeemAmount > 0, \"ZERO_AMOUNT\");\n        require(_redeemAmount <= balanceOf(msg.sender), \"INSUFFICIENT_BALANCE\");\n\n        uint256 totalBalance = underlyingBalanceInclStrategy();\n        uint256 underlyingBalance = underlyingBalanceInPool();\n        uint256 underlyingAmountToWithdraw = totalBalance.mul(_redeemAmount).div(totalSupply);\n\n\n        if (underlyingAmountToWithdraw > underlyingBalance) {\n            uint256 missingUnderlying = underlyingAmountToWithdraw.sub(underlyingBalance);\n            uint256 missingRedeemed = missingUnderlying.mul(totalSupply).div(totalBalance.sub(underlyingBalance));\n\n            redeemedTokens = IStrategy(underlyingStrategy).redeem(\n                missingRedeemed, totalSupply, address(this)\n            );\n\n            redeemedTokens = Math.min(\n                underlyingBalanceInclStrategy()\n                .mul(_redeemAmount)\n                .div(totalSupply),\n                underlyingBalanceInPool()\n            );\n        } else {\n            redeemedTokens = underlyingAmountToWithdraw;\n        }\n\n        // TODO charge exit fee\n        //redeemedTokens = _chargeFee(_redeemAmount, redeemedTokens);\n        // Burn LP from sender\n        _burn(msg.sender, _redeemAmount);\n        // send underlying to sender\n        underlying.safeTransfer(msg.sender, redeemedTokens);\n\n        emit Redeemed(msg.sender, redeemedTokens);\n    }\n\n    /// @notice Execute a rebalance. Only owner.\n    ///         Fails if the rebalance would result into lower APR.\n    function rebalance() external onlyOwner {\n\n        uint256 aprBefore = getAPR();\n        uint256 totalSupply = totalSupply();\n        // redeem the full supply\n        IStrategy(underlyingStrategy).redeem(totalSupply, totalSupply, address(this));\n        // re-invest\n        _invest();\n        // rebalance the supplied investment\n        IStrategy(underlyingStrategy).rebalance();\n        uint256 aprAfter = getAPR();\n\n        require(aprBefore <= aprAfter, \"LOWER_APR\");\n    }\n\n    /// @notice APR for the investment\n    function getAPR() public view returns (uint256 apr) {\n        return IStrategy(underlyingStrategy).getAPR();\n    }\n\n    function decimals() public view virtual override returns (uint8) {\n        return uint8(underlying.decimals());\n    }\n\n    /// @notice Get the balance of the underlying token owned by the pool itself.\n    /// @return uint256 underlying balance.\n    function underlyingBalanceInPool() public view returns (uint256) {\n        return underlying.balanceOf(address(this));\n    }\n\n    /// @notice Get the total balance of the underlying token owned by the pool and its strategies.\n    /// @return total underlying balance.\n    function underlyingBalanceInclStrategy() public view returns (uint256) {\n        if (underlyingStrategy == address(0)) {\n            return underlyingBalanceInPool();\n        }\n\n        return underlyingBalanceInPool().add(IStrategy(underlyingStrategy).investedUnderlyingBalance());\n    }\n\n    function getPricePerFullShare() public view returns (uint256) {\n        return totalSupply() == 0\n            ? underlyingUnit\n            : underlyingUnit.mul(underlyingBalanceInclStrategy()).div(totalSupply());\n    }\n\n    /// @notice Calculate the LP token amount that correspondents to the underlying token amount.\n    /// @param  depositAmount underlying token amount to deposit.\n    /// @return uint256 LP token amount to mint.\n    function _calculateMintAmount(uint256 depositAmount) internal view returns (uint256) {\n        uint256 totalSupply = totalSupply();\n\n        if (totalSupply == 0) {\n            return depositAmount.mul(DEFAULT_LPT_RATE);\n        }\n\n        return depositAmount.mul(totalSupply).div(underlyingBalanceInclStrategy());\n    }\n\n    function availableToInvestOut() public view returns (uint256) {\n        uint256 wantInvestInTotal = underlyingBalanceInclStrategy()\n        .mul(maxInvestmentPerc)\n        .div(FULL_ALLOC);\n        uint256 alreadyInvested = IStrategy(underlyingStrategy).investedUnderlyingBalance();\n        if (alreadyInvested >= wantInvestInTotal) {\n            return 0;\n        } else {\n            uint256 remainingToInvest = wantInvestInTotal.sub(alreadyInvested);\n            return remainingToInvest <= underlyingBalanceInPool()\n            ? remainingToInvest : underlyingBalanceInPool();\n        }\n    }\n\n    function _invest() internal {\n        uint256 availableAmount = availableToInvestOut();\n        if (availableAmount > 0) {\n            underlying.safeTransfer(underlyingStrategy, availableAmount);\n        }\n    }\n}\n",
  "sourcePath": "/home/osboxes/robo-advisor/contracts/Pool.sol",
  "compiler": {
    "name": "solc",
    "version": "0.8.2+commit.661d1103.Emscripten.clang"
  },
  "schemaVersion": "3.4.3",
  "updatedAt": "2021-09-13T16:44:02.923Z",
  "networkType": "ethereum",
  "devdoc": {
    "details": "needs to be upgradeable, so that it complies with the beacon proxy pattern.",
    "kind": "dev",
    "methods": {
      "allowance(address,address)": {
        "details": "See {IERC20-allowance}."
      },
      "approve(address,uint256)": {
        "details": "See {IERC20-approve}. Requirements: - `spender` cannot be the zero address."
      },
      "balanceOf(address)": {
        "details": "See {IERC20-balanceOf}."
      },
      "decimals()": {
        "details": "Returns the number of decimals used to get its user representation. For example, if `decimals` equals `2`, a balance of `505` tokens should be displayed to a user as `5.05` (`505 / 10 ** 2`). Tokens usually opt for a value of 18, imitating the relationship between Ether and Wei. This is the value {ERC20} uses, unless this function is overridden; NOTE: This information is only used for _display_ purposes: it in no way affects any of the arithmetic of the contract, including {IERC20-balanceOf} and {IERC20-transfer}."
      },
      "decreaseAllowance(address,uint256)": {
        "details": "Atomically decreases the allowance granted to `spender` by the caller. This is an alternative to {approve} that can be used as a mitigation for problems described in {IERC20-approve}. Emits an {Approval} event indicating the updated allowance. Requirements: - `spender` cannot be the zero address. - `spender` must have allowance for the caller of at least `subtractedValue`."
      },
      "deposit(uint256)": {
        "params": {
          "depositAmount": "underlying token amount to deposit"
        }
      },
      "increaseAllowance(address,uint256)": {
        "details": "Atomically increases the allowance granted to `spender` by the caller. This is an alternative to {approve} that can be used as a mitigation for problems described in {IERC20-approve}. Emits an {Approval} event indicating the updated allowance. Requirements: - `spender` cannot be the zero address."
      },
      "initialize(string,string,address,address,uint256,address)": {
        "params": {
          "_name": "name of the LP token",
          "_owner": "contract owner",
          "_strategy": "address of the strategy",
          "_symbol": "symbol of the LP token",
          "_token": "underlying token address"
        }
      },
      "name()": {
        "details": "Returns the name of the token."
      },
      "owner()": {
        "details": "Returns the address of the current owner."
      },
      "redeem(uint256)": {
        "params": {
          "_redeemAmount": "LP token amount to redeem."
        },
        "returns": {
          "redeemedTokens": "underlying tokens redeemed"
        }
      },
      "renounceOwnership()": {
        "details": "Leaves the contract without owner. It will not be possible to call `onlyOwner` functions anymore. Can only be called by the current owner. NOTE: Renouncing ownership will leave the contract without an owner, thereby removing any functionality that is only available to the owner."
      },
      "symbol()": {
        "details": "Returns the symbol of the token, usually a shorter version of the name."
      },
      "totalSupply()": {
        "details": "See {IERC20-totalSupply}."
      },
      "transfer(address,uint256)": {
        "details": "See {IERC20-transfer}. Requirements: - `recipient` cannot be the zero address. - the caller must have a balance of at least `amount`."
      },
      "transferFrom(address,address,uint256)": {
        "details": "See {IERC20-transferFrom}. Emits an {Approval} event indicating the updated allowance. This is not required by the EIP. See the note at the beginning of {ERC20}. Requirements: - `sender` and `recipient` cannot be the zero address. - `sender` must have a balance of at least `amount`. - the caller must have allowance for ``sender``'s tokens of at least `amount`."
      },
      "transferOwnership(address)": {
        "details": "Transfers ownership of the contract to a new account (`newOwner`). Can only be called by the current owner."
      },
      "underlyingBalanceInPool()": {
        "returns": {
          "_0": "uint256 underlying balance."
        }
      },
      "underlyingBalanceInclStrategy()": {
        "returns": {
          "_0": "total underlying balance."
        }
      }
    },
    "title": "Pool",
    "version": 1
  },
  "userdoc": {
    "events": {
      "Deposited(address,uint256)": {
        "notice": "when LP amount was minted as a result of a deposit"
      },
      "Redeemed(address,uint256)": {
        "notice": "when LP amount was redeemed"
      }
    },
    "kind": "user",
    "methods": {
      "deposit(uint256)": {
        "notice": "Deposits the underlying token into the liquidity pool."
      },
      "getAPR()": {
        "notice": "APR for the investment"
      },
      "initialize(string,string,address,address,uint256,address)": {
        "notice": "Initialize the contract instead of a constructor during deployment."
      },
      "rebalance()": {
        "notice": "Execute a rebalance. Only owner.         Fails if the rebalance would result into lower APR."
      },
      "redeem(uint256)": {
        "notice": "Redeems LP tokens by burning them and getting back underlying token."
      },
      "underlying()": {
        "notice": "underlying token of the pool"
      },
      "underlyingBalanceInPool()": {
        "notice": "Get the balance of the underlying token owned by the pool itself."
      },
      "underlyingBalanceInclStrategy()": {
        "notice": "Get the total balance of the underlying token owned by the pool and its strategies."
      },
      "underlyingUnit()": {
        "notice": "underlying token decimal"
      }
    },
    "notice": "Liquidity pool for for depositing tokens. For every token deposited         into the pool, a LP token token is minted, representing a share of the pool.         LP tokens can be redeemed for the underlying tokens.",
    "version": 1
  }
}